:1000000000800020412800003D2800003D2800001D
:1000100000000000000000000000000000000000E0
:100020000000000000000000000000003D2800006B
:1000300000000000000000003D2800003D280000F6
:100040003D280000892300003D2800003D280000D5
:100050003D280000000000003D2800003D28000071
:100060003D2800003D280000212800003D28000018
:100070003D2800003D2800003D2800003D280000EC
:100080003D2800003D2800003D2800003D280000DC
:100090003D2800003D2800003D2800003D280000CC
:1000A0003D2800003D280000000000000000000086
:1000B0000000000000000000000000000000000040
:1000C000002243088B4274D303098B425FD3030A97
:1000D0008B4244D3030B8B4228D3030C8B420DD3AA
:1000E000FF22090212BA030C8B4202D31212090238
:1000F00065D0030B8B4219D300E0090AC30B8B4276
:1001000001D3CB03C01A5241830B8B4201D38B0323
:10011000C01A5241430B8B4201D34B03C01A5241C8
:10012000030B8B4201D30B03C01A5241C30A8B420B
:1001300001D3CB02C01A5241830A8B4201D38B02F6
:10014000C01A5241430A8B4201D34B02C01A52419A
:10015000030A8B4201D30B02C01A5241CDD2C3090C
:100160008B4201D3CB01C01A524183098B4201D388
:100170008B01C01A524143098B4201D34B01C01A73
:10018000524103098B4201D30B01C01A5241C308EB
:100190008B4201D3CB00C01A524183088B4201D35A
:1001A0008B00C01A524143088B4201D34B00C01A46
:1001B0005241411A00D20146524110467047FFE7B2
:1001C00001B5002000F0F0F802BDC0460029F7D0CC
:1001D00076E7704703460B437FD4002243088B42E7
:1001E00074D303098B425FD3030A8B4244D3030BBE
:1001F0008B4228D3030C8B420DD3FF22090212BA83
:10020000030C8B4202D31212090265D0030B8B42FE
:1002100019D300E0090AC30B8B4201D3CB03C01AE8
:100220005241830B8B4201D38B03C01A5241430BC3
:100230008B4201D34B03C01A5241030B8B4201D3B3
:100240000B03C01A5241C30A8B4201D3CB02C01A1E
:100250005241830A8B4201D38B02C01A5241430A96
:100260008B4201D34B02C01A5241030A8B4201D385
:100270000B02C01A5241CDD2C3098B4201D3CB012C
:10028000C01A524183098B4201D38B01C01A5241DB
:1002900043098B4201D34B01C01A524103098B42DF
:1002A00001D30B01C01A5241C3088B4201D3CB00CA
:1002B000C01A524183088B4201D38B00C01A5241AD
:1002C00043088B4201D34B00C01A5241411A00D25D
:1002D00001465241104670475DE0CA0F00D04942C6
:1002E000031000D34042534000229C4603098B4236
:1002F0002DD3030A8B4212D3FC22890112BA030ABE
:100300008B420CD3890192118B4208D3890192113F
:100310008B4204D389013AD0921100E08909C309C4
:100320008B4201D3CB01C01A524183098B4201D3C6
:100330008B01C01A524143098B4201D34B01C01AB1
:10034000524103098B4201D30B01C01A5241C30829
:100350008B4201D3CB00C01A524183088B4201D398
:100360008B00C01A5241D9D243088B4201D34B00B3
:10037000C01A5241411A00D20146634652415B10F5
:10038000104601D34042002B00D5494270476346D6
:100390005B1000D3404201B5002000F005F802BD1B
:1003A0000029F8D016E770477047C0468446100011
:1003B00062468C461900634600E0C0461FB500F057
:1003C000F9FF002801D40021C8421FBD10B500F07C
:1003D00049FF4042013010BD10B500F0EBFF00288E
:1003E00001DB002010BD012010BDC04610B500F09B
:1003F000E1FF002801DD002010BD012010BDC04636
:1004000010B500F071FF002801DC002010BD0120B4
:1004100010BDC04610B500F067FF002801DA0020CB
:1004200010BD012010BDC046002B11D1002A0FD1F4
:10043000002900D1002802D00021C943080007B4D8
:10044000024802A14018029003BDC0465DFFFFFFB5
:1004500003B4684601B5029800F006F8019B9E4679
:1004600002B00CBC7047C046F0B557464E464546F4
:10047000DE46E0B504000D009246994683B08B42FB
:1004800030D82DD04946504601F0BEFE2900060066
:10049000200001F0B9FE331A9846203B9B4633D426
:1004A0005A465346934042461F00534693401E000F
:1004B000AF423AD8AF4200D178E05B46A41BBD41C1
:1004C000002B00DA75E00022002300920193012343
:1004D0005A4693400193012342469340009328E0FB
:1004E0008242CFD900220023009201930C9B002B63
:1004F00001D01C605D600098019903B0F0BCBB4660
:10050000B246A946A046F0BD424620239B1A524659
:10051000DA40414613004A468A40170042461F43CC
:10052000534693401E00AF42C4D9002200230092DC
:1005300001934346002BD9D0FB0772081A43464665
:100540007B080EE0AB4201D1A2420CD8A41A9D4117
:10055000012024196D410021013E24184D41002E37
:1005600006D0AB42EED9013E24196D41002EF8D1E0
:10057000009801995B4600196941002B24DB2B0090
:100580005A464446D3402A00E2401C005B46150010
:10059000002B2ADB26009E40330026004746BE4043
:1005A0003200801A9941009001919FE7A342BCD884
:1005B00083E74246202300219B1A002200910192EA
:1005C0000122DA40019286E7424620239B1A2A0044
:1005D00046469A402300F340444613432A00E24033
:1005E0001C005B461500002BD4DA42462F00202366
:1005F000260097409B1ADE403B003343CDE7C046C0
:10060000F0B54F464646D6460D000400C0B51F0063
:1006100011002803620F400A10437A00520DE300D4
:100620003C039146640AFA0F4F0F6E00274392462F
:10063000B846760DED0FC900954200D199E04C46C1
:10064000341BA446002C00DC7CE04A46002A00D182
:10065000B8E0C54A964200D11CE180223C00120459
:100660001443A0466246382A00DD61E11F2A00DDFE
:10067000CCE164462022121B444694400F00A14660
:1006800064469140E7404C464A1E91413C434246F5
:1006900021436446E240801A5C1AA3429B415F42B8
:1006A000C71B3B0200D4D0E07F027F0A002F00D19D
:1006B000FFE0380001F08AFD010008392023220004
:1006C0005B1A8F40DA408C401743B14200DAFFE0FA
:1006D000891B4B1C1F2B00DDA8E020223900D21AF9
:1006E000200094409140D840621E9441DF40002693
:1006F00001430C43630709D00F232340042B05D08B
:10070000231DA342A44164423F191C003B0200D4B4
:100710009EE0954B01369E4200D1B7E0934AE40833
:1007200017407B0771057F0223433F0B4A0D1205DB
:100730003A43ED072A4318001100E0BCBA46B1461F
:10074000A846F0BD002C4BD04C46A41BA446002E5E
:1007500000D023E104001C4300D1AFE16246541EE7
:10076000012A00D115E2804DAC4500D1C8E1A44674
:100770001BE14A46B21A9446002A00DCACE04A4625
:10078000002A43D0784A964200D1AFE180223C0053
:1007900012041443A0466246382A67DC1F2A00DC94
:1007A0005FE14746203AD7406246202A05D064469A
:1007B0004022121B4446944021434A1E91410C00A2
:1007C0003C4357E03A000A4300D105E12200013AD8
:1007D000012C00D182E1644CA4455BD0944641E7F2
:1007E000634C771C274200D0C4E004001C43002E59
:1007F00000D069E1002C00D1BFE144460C4300D099
:10080000D0E14207DB081343C00829E03A000A435D
:1008100000D170E162466446013A012C00D1E0E06B
:10082000514CA44500D161E19446B4E73A001F3928
:10083000CA401100202B03D04022D31A9F403C43D2
:10084000631E9C41002700260C43630700D053E73A
:10085000B446E4087B072343F808434A94451DD077
:100860006246070352053F0B520D60E744460C43B6
:10087000621E9441E4189C429B415F423F183B0238
:10088000E3D5394B01369E4200D0B5E03200002757
:1008900000234CE74207DB081343C0081A00024359
:1008A00000D1E1E180273F0307433F032E4A3F0B7E
:1008B0003DE7200001F08AFC010018311F2900DC0F
:1008C000FCE60838844027000024B14200DBFFE644
:1008D000264A761A17400DE7002A2FD04A46921B67
:1008E0009446002E00D1ADE01F4A914500D10FE1A2
:1008F0008022120410436246382A00DD0FE11F2ACD
:1009000000DD80E1644620221E00121B67460400C1
:1009100093409440FE405A1E9341F84034431C4398
:10092000804464188C42BF417F424E464744A6E74C
:1009300042460A4311004A1E9141ADE60C4C721C1E
:10094000224200D0A1E002001A43002E00D0FAE0BB
:10095000002A00D145E13A000A4300D046E14207AF
:10096000DB081343C0087BE7FF070000FFFF7FFFA2
:10097000FE07000047465C1AC21BA342BF417F42EC
:10098000B94617004A46BF1A3A0200D58DE0230047
:100990003B4300D08AE60020002561E7B44CA14526
:1009A00000D1ADE08024240420436446382C3DDC93
:1009B00062461F2C00DDB7E020251E002D1B040021
:1009C000AB40AC40D640D04042465D1EAB413443C4
:1009D000121A904623432CE04207DB081343C00859
:1009E0003BE75C189C429B4140445B42C718012690
:1009F0003B0200D429E702269E4A630817400122E1
:100A000014401C43FB071C437F0873E64446203A0E
:100A1000D4406246202A05D067464022D21B474672
:100A2000974039434A1E9141214335E60343581EFE
:100A30008341CC1AA142BF4143467F4255464E46B0
:100A4000DF1B2EE602001A4300D1BDE06246644679
:100A5000013A012C00D1E5E0854CA44558D09446DC
:100A600049E764462022121B444694400F00A146E9
:100A700064469140E7404C464A1E91413C43424601
:100A80000C436146CA408018F4E6794CA24200D17A
:100A9000FDE6591899429B4140445F42C719FC0743
:100AA000490816000C437F08CFE6CC1AA142BF418B
:100AB00043467F42181A5546C71BF7E5C9087B070E
:100AC00055460B43F808C8E6002C00D081E04346A9
:100AD0000B4315D1802000250003E3E65C1AA342F6
:100AE0009B41C71B5B420126FF1ADAE54207DB0880
:100AF0001343C008D2E64207DB081343C008ACE644
:100B000043464246C9085B0755460B43D008C5E635
:100B1000434642465B07C9080B43D008BEE6034381
:100B20001C00631E9C41FCE60200203CE2401400D5
:100B30006246202A03D04025AD1AA8400343581E20
:100B40008341234375E7002AE2D03A000A43CDD01F
:100B50004207DB0813438022C0081203104206D06C
:100B6000FC08144203D12000CB087A0713435A0F24
:100B7000DB005207DB08134390E643460B4300D1EA
:100B800009E743464246C9085B0755460B43D00870
:100B900066E6CC1AA14289413F1A494255460126D0
:100BA0007F1A7EE542465C1A871AA342924152425E
:100BB000BF1A3A023DD5CC1AA14289414346494267
:100BC0001F1A55467F1A95E57B07C9080B43F8089D
:100BD00043E64446DB080C4330D142071343C008C8
:100BE0005CE67B07C9080B43F80839E65C189C42B1
:100BF0009B4140445B42C7183B0200D425E61D4B95
:100C000001261F4021E60400203AD4406246202AF3
:100C100004D040226646921B904003435A1E9341E3
:100C20001C437EE65C188C42894140444942471887
:100C3000DDE623003B4300D1ADE606E6440723434F
:100C40008024C0082403204208D04246D608264209
:100C500004D155463000CB0851070B435A0FDB0037
:100C6000DB085207134319E60023014A1F005EE523
:100C7000FF070000FFFF7FFFF0B557464E46454691
:100C8000DE46E0B5814605000C03480092461F0091
:100C900085B0240B400DCE0F002800D156E1D44B77
:100CA000984200D172E16B0FE4001C4380231B04C7
:100CB00023439846CF4BED009B460023994683443F
:100CC00000933C037B005046240B5B0DFF0F002B71
:100CD00000D11FE1C64A934200D162E1C549420FEB
:100CE0008C46E40059461443802263441204CB1A14
:100CF00014439B46C200002033007B409A464B467B
:100D00000F2B27D8BC499B00CB589F46B246009B6F
:100D1000022B16D0032B00D18EE2012B00D0D9E09C
:100D200000230024002552461B052343D20713430A
:100D30002800190005B0F0BCBB46B246A946A04643
:100D4000F0BD00240025AA4BEDE7BA46A0461500E9
:100D50000090DCE7444500D2C7E100D1C2E10123A5
:100D60005B429C462E0040460025E3442302140EBD
:100D70001C431B0C994623041F0C12024946009287
:100D80000197FFF723FA02007A430B04310C8046E7
:100D900019438A4207D901235B429C460919E04462
:100DA0008C4200D807E2881A4946FFF70FFA090477
:100DB0008C4631046646019A090C424303003143D4
:100DC0008A4204D90919013B8C4200D8EDE1881A06
:100DD000424612041A4390464146009B0E041B0CE7
:100DE0001F000293009B360C1B04190C0B0073436D
:100DF000120C7E43039151437A431F0CBC46761874
:100E00006644B14203D9802149028C466244310CC8
:100E10008A1831041E04360C8E19904202D312D166
:100E2000B54210D24346591E009B9C4665441F00A4
:100E30009D429B415B421B19C018844200D2A0E135
:100E400000D19BE18846AE1BB542AD41801A6D4290
:100E5000401B844200D1D5E14946FFF7B7F9019A1A
:100E60000B044243310C050019438A4200D96CE15E
:100E7000881A4946FFF7AAF9019A36044243090441
:100E8000360C03000E43B24200D953E10398B61A60
:100E900002002D041D43029F2B041B0C5A437B436D
:100EA0009C46290C4843130C84446344794398427C
:100EB00003D98020400284466144180C12041B04AC
:100EC000120C41189B188E4200D2FFE000D1FAE0CC
:100ED00001231D43494A5A44002A00DCAAE06B075B
:100EE00000D03DE1ED084346DB0106D54246444BC8
:100EF0001A4090468022D2005A44424B9A4200DD6A
:100F00001FE743465B071D43434652055C02240B23
:100F1000530D08E75246224300D17BE0002C00D15C
:100F2000FAE0200001F052F902000B3A1D23010003
:100F30009B1A52460839DA408C40144352468A4084
:100F4000314B58449B4683440020D5E64B4623430F
:100F5000984644D0002C00D1CEE0200001F036F9B4
:100F6000010002000B391D235B1A49461000D940CD
:100F7000083884400B004D4623439846854023485B
:100F8000831A9B460023994600939AE64B462343D7
:100F900098461DD108239946063B002583460093B9
:100FA0008FE65246224309D1022349461943184B82
:100FB00089469C4600240220E3449DE603234A46DA
:100FC0001A43134B91469C4652460320E34493E652
:100FD0000C239946093BA0468346009371E60423FF
:100FE000994600239B4601330025009369E6C046DD
:100FF000FF07000001FCFFFFA8A90000FF0300009D
:10100000FFFFFFFEFE070000F30300000DFCFFFFE3
:1010100001F8FFFF494601231943894600240120B6
:101020006AE6002380249A4600258A4B24037AE648
:1010300001256D4201239B1A382B00DD70E61F2B22
:1010400000DCBFE01F2149428A1A4146D1400A0014
:10105000202B04D04146804B5B4499400D436B1ECE
:101060009D4107232A431D0000241540134200D14F
:10107000D4E00F2100231140042900D1CBE0111D41
:101080009142924152429B180A00190200D4C2E0D8
:1010900001230024002546E6802341461B03194214
:1010A00008D01C4206D11C432403BA461500694BE4
:1010B000240B38E68024434624031C432403B24611
:1010C000644B240B2FE6002B00D103E7A619681E02
:1010D000A64200D28DE08E4200D2A3E000D1B3E060
:1010E0000500F5E6AA4200D939E64346DE0758086E
:1010F0006B081E43ED0739E6484601F067F801002A
:101100000200153120321C2900DC2CE74B46083840
:1011100083400025984632E701F058F803001A0092
:10112000153220301C2A00DC00E75446083B002220
:101130009C4005E73619013BB44200D9A6E6B2420D
:1011400000D8A3E6831E3619A0E60919013D8C429A
:1011500000D98DE68A4200D88AE6851E091987E6FD
:101160000F232B40042B00D1BCE605235B42AB428E
:101170009B4104355B42ED089844B4E6AF4200D988
:1011800060E6824204D800D05CE6AE4200D859E660
:1011900002235B429C46009BE0449C4665449D4282
:1011A0009B415B421B19C0184DE68A4200D80EE6EF
:1011B000831E09190BE68A4200D8F4E5831E98467F
:1011C0000919F0E52549280059448D4042468A40D6
:1011D000691E8D414146D840D94002432A430B0045
:1011E000510700D151E70F211140042900D046E7F3
:1011F0004BE705008E4200D06AE6009A934200D089
:1012000066E667E6164A5A44002A00DC10E7012326
:101210000025984467E65D075B021C0BD20800239B
:10122000154380E50098023D42008242BF417F4263
:101230003C1936190092DDE78024434624031C4301
:101240002403044B240B6EE5009A9A42EAD305006E
:10125000D3E7C046FF0700003E0400001E04000064
:10126000FF030000F0B54E464546DE465746904621
:10127000E0B517001A03120B0500844619480E0347
:101280004C0091465A00DB0F9B46360B640DC90F8C
:10129000520D844219D0824210D0012094420ED1C6
:1012A0004E450CD10120C44509D1594517D0002C19
:1012B00005D130002843431E984100E00120F0BCD6
:1012C000BB46B246A946A046F0BD330001202B43E1
:1012D000F5D1A242F3D14B463B43F0D1E2E70020E7
:1012E000EDE7C046FF070000F0B54746CE460400D4
:1012F000180016001B031B0B2D4D4A00994680B5A4
:1013000043000F03A446B0463F0B520DC90F5B0DBF
:10131000C00FAA4221D0AB4213D0002A22D13C43B5
:10132000002B02D14D462E4322D0002C10D08142FA
:1013300022D00220013908400138C0BCB946B0466D
:10134000F0BD4D462E4329D1002AF0D13C43EED1C9
:101350000028F2D101204042EFE73D0025431DD196
:101360009342EED0002BE2D14C462643DFD1E0E79A
:101370000020002CE1D0DCE79A420ADCE8DB4F4594
:10138000D7D80ED000204F45D7D20029E2D0080090
:10139000D3E74342584140000138CEE702204042A3
:1013A000CBE7C445C5D80020C445C6D2EDE7C0464A
:1013B000FF070000F0B54746CE46040018001600AF
:1013C0001B031B0B2C4D4A00994680B543000F03AD
:1013D000A446B0463F0B520DC90F5B0DC00FAA4289
:1013E0000DD0AB4210D0002A27D13C43002B11D1A5
:1013F0004D462E430ED10020002C15D00EE03D00AE
:10140000254310D1934218D14D462E430BD1002ACB
:1014100002D13C43002C0BD0814214D00220013970
:101420000840013800E00220C0BCB946B046F0BD1B
:101430000028F9D101204042F6E7002BECD14C46C0
:101440002643E9D1EAE79A4204DD4342584140008D
:101450000138E9E79A42EBDB4F45DFD806D00020A0
:101460004F45E1D20029E5D00800DDE7C445D5D8D5
:101470000020C445D8D2F5E7FF070000F0B5574675
:101480004E464546DE46E0B598460C034B00060046
:10149000924687B0240B5B0DCF0F002B00D15CE18F
:1014A000D94A934200D175E1420FE40014438022EF
:1014B00012041443D54AC5009446634400930023A4
:1014C00099469B46434642461E03D20F5B00504658
:1014D0009046360B5B0D00D120E1CB4A934200D100
:1014E00062E1CA49420F8C4600996344F6008C467B
:1014F000164380229C44120463461643C200002017
:1015000000930099434601318C4649467B40019344
:101510000F2926D8BE4B890059588F464346019360
:101520003400150083465B46022B16D0032B00D1F6
:1015300003E2012B00D0CDE0002200240025019B16
:1015400012052243DB071A432800110007B0F0BC44
:10155000BB46B246A946A046F0BD00240025AA4AD3
:10156000EDE7280C2D042D0C2B00110C1204120C8D
:101570005343984613002F00434399464F434F442B
:10158000BB4647460B003F0CBA464343DA4402933E
:10159000D14504D980277F02B9464B440293534674
:1015A0001B0C9B4653461F0443461B041B0C9846CA
:1015B0003B0043440493330C3604360C9846330006
:1015C00043439946434643432F009A464346774355
:1015D0005D43380C4D444519A94503D980235B026E
:1015E0009946CA443F04280C3F0C2D04ED19270CE2
:1015F0002404240C0300200050437A4391463A000F
:1016000053440593030C9A464A4361434944514469
:10161000AB44894503D980235B0299464A440004C0
:101620000B0C000C0904091820009946434670432E
:101630005C437E435F43030C9846A41944444A44E8
:101640000397A64204D980235B0298464744039738
:101650002304029E9A46059B5E449846AE42AD41E5
:1016600076188E4289410004000C504440446D427B
:101670004719B846934649428946C344D9449842DB
:101680008041A845AD4193459241894589416D42CC
:1016900040422843240C524249420A43039B00190A
:1016A0008018C7184B46DC0D049B75021D436A1E4B
:1016B00095414B46F60D7F0235435A023C43154394
:1016C000FB0100D41CE101216A080D401543E2072B
:1016D000154364084F496144002900DCB0E06B0702
:1016E00009D00F222A40042A05D02A1DAA42AD4162
:1016F0006D4264191500E30104D58021464AC900F2
:1017000014406144454A914200DD26E76207ED0836
:10171000640249051543240B4A0D10E75246324333
:1017200000D17FE0002E00D1DCE0300000F04EFD63
:1017300002000B3A1D2301009B1A52460839DA4079
:101740008E40164352468A40009B3549181A0300C2
:101750008C46634400200093D3E6250005434AD01D
:10176000002C00D1B0E0200000F030FD01000200AC
:101770000B391D2310005B1A3100350008388440F6
:10178000D94085400C432648831A0093002399468C
:101790009B4697E60500254326D1082200930223A5
:1017A000002491469B468DE65246009B324310D161
:1017B000154900268C466344494600930223194389
:1017C000894602209DE65B460197022B00D0ADE6DC
:1017D000C3E60D4A0320944663444A46009303231C
:1017E0001A43914652468CE60C22009303230500CF
:1017F00091469B4666E604239946002300930133F5
:1018000000249B465EE6C046FF07000001FCFFFF88
:10181000E8A90000FF030000FFFFFFFEFE07000035
:101820000DFCFFFF4946012319438946002601208C
:1018300067E6002380240025434A019324037EE6C3
:101840000120401A382800DD76E61F285BDD1F22C4
:1018500023005242511ACB401900202803D03B4AA2
:101860006244944025436A1E95412A000A43072199
:101870000D000024154011425BD00F2100241140BF
:10188000042953D0111D914292415242A4180A00DA
:1018900023024BD501220024002550E680231B03A0
:1018A0001C4209D01E4207D133431C034346150096
:1018B000240B254A019342E6802212031443240399
:1018C000214A240B01973AE600F080FC0100020057
:1018D000153120321C2900DC4BE734000838002584
:1018E000844050E700F072FC03001A0015322030EB
:1018F0001C2A00DC1EE75646083B00229E4023E7D8
:10190000009B9C46E6E61249220061442E008D4071
:101910008A40C640691E8D4132432A43C440530762
:10192000B6D00F2111400429ACD1B1E7650764029C
:10193000240BD2081543002201E68022120314432F
:101940002403014A240BFAE5FF0700003E040000CF
:101950001E040000F8B557464E464546DE46E0B543
:101960001E0017004A000B03520D5B0A9046420FFF
:101970001A43CD0FCD4C3103C300944670007A0F4B
:10198000490AFF009A46B946400DF60F1143A0429E
:1019900000D1B1E001225640B346B54200D188E003
:1019A0004246121A002A00DCAEE0002800D1C1E055
:1019B000BE48804500D151E1802000040143382A0F
:1019C00000DD7BE11F2A00DDEEE120203E00801AD1
:1019D0000C00D640D140874062468440521A781E9F
:1019E0008741944634432743DC1BA3429B41624614
:1019F0005B42D31A99464B461B0200D418E14B4672
:101A00005802430A99464B46002B00D137E148461D
:101A100000F0DCFB010008392023220048465B1A55
:101A2000DA4088408C4043461043884500DD36E16B
:101A3000C91A4B1C1F2B00DDEAE020222600D21A17
:101A400001009440DE40D84000239140621E944142
:101A50008146984631430C43630709D00F23234046
:101A6000042B05D0231DA342A4416442A1441C00C1
:101A70004B461B0200D4DEE041468C4B01319942BB
:101A800000D1E7E04B468A48E408034018004905C6
:101A90005B07400223434A0D040B1205ED07224366
:101AA0002A4318001100F0BCBB46B246A946A04626
:101AB000F8BD4246121A002A52DD002800D19CE0EF
:101AC000A04500D1CAE0802000040143382A00DD8F
:101AD00049E11F2A00DC97E110000E002038C640C3
:101AE000202A04D04020821A91400F43B9464C4628
:101AF000621E944134433AE10A003A4328D0B34687
:101B0000B5422BD06B4A4244002A5DD0424644463F
:101B1000821A002C00D0F5E065461D4300D19CE1FF
:101B2000551E012A00D1FBE1604CA24200D1BDE16B
:101B30002A00F0E00800384300D1C3E0501E012A1B
:101B400000D1A8E1594CA24200D187E0020036E75B
:101B500001225640B346B54200D021E7554A4244DF
:101B6000002A00D1B5E042464446821A002C00D13A
:101B700038E14E4EB04200D1DEE1802664463604A4
:101B80003443A446382A00DD96E11F2A00DD24E212
:101B90002026B41AA24664465646B440A1461C000C
:101BA0004E46D440264334005646B3405E1EB341F1
:101BB0001C436346D340C918E419BC42BF417F426D
:101BC000B94680468944D8E040463B4C013020422B
:101BD00000D0B4E04046002800D044E160461843FD
:101BE00000D190E10800384300D0AAE16146DB084B
:101BF00049070B436146CC0827E00800384361D011
:101C0000501E012A00D139E1A24227D002005DE72F
:101C100002001F39CA401100202B03D04022D31AE2
:101C200098400443631E9C410023994698460C4308
:101C3000630700D012E74B464A46E4085B0723439C
:101C4000D408424619498A420ED024035205240B77
:101C5000520D22E70A00002400231EE7DB0862463B
:101C6000520713436246D4081A00224300D1FCE114
:101C700080221203144324030C4A240B0DE7200096
:101C800000F0A4FA010018311F2900DCC4E608386E
:101C90008440434620000024884500DCC8E6044A0E
:101CA0005B1A104098468146D6E6C046FF07000002
:101CB000FFFF7FFF01F8FFFFFE0700000F437A1EC2
:101CC000974191E66146DB0849070B436146CC0822
:101CD000B8E74046D34C0130204200D0A2E0404655
:101CE000002800D001E16046184300D15EE1080001
:101CF000384300D05FE16146DB0849070B4361468A
:101D0000CC08A2E7C84DA84200D1CFE080256446A8
:101D10002D042C43A446382A56DC1F2A00DDD1E0CE
:101D200020251E00AD1A6446AB40AC40D6405D1E77
:101D3000AB41344323436446D440091B49E0604629
:101D4000DC1B461AA34280414042814630004E4689
:101D5000801B8146000276D44B46234300D052E6D6
:101D60000024002571E739430C00621E9441E418F9
:101D70009C429B415B42634499464B461B0200D404
:101D800056E701239C46A84BE044984538D04B4683
:101D9000A648012203401800630814401C43C307EF
:101DA0001C434308994657E610000E002038C640F1
:101DB000202A04D04020821A91400F43B9464F4652
:101DC0007A1E974137430FE662461A4313005A1EA4
:101DD0009341FC1AA742BF417F42CB1B99465D4607
:101DE000804608E666461E4300D1BEE0561E012A24
:101DF00000D109E18C4CA24200D119E13200C1E6C8
:101E000042460024002348E620200C00801A3E00B1
:101E100087408440D640781E8741D14034433C43BC
:101E20008C44A4E7804A904200D1E9E0DF199F4248
:101E30009B4161445B42C918CC077F084B08994617
:101E400080463C43F4E6FC1AA742BF4163467F420A
:101E5000C91ACB1B99465D46D5E5FF084B075D4681
:101E60003B43CC08EEE662461A4300D082E00B000A
:101E70003B431BD1802400252403F9E6DC199C4256
:101E80009B41614489465B4299444B461B0244D4C2
:101E900001239846CCE6DC1B6246A3429B41511AC3
:101EA0005B42CB1A994601239846A4E5FF084B07ED
:101EB0005D463B43CC08D7E662461A431400631ED6
:101EC0009C4179E615006446203DEC40A046202A5E
:101ED00005D040256446AA1A944023439A465446A6
:101EE000631E9C414346234373E762461A4323D053
:101EF0000A003A4300D0A0E06246DB0852071343D1
:101F00006246D408B0E60B003B4300D128E7FF0847
:101F10004B075D463B43CC0897E60223984636E7DD
:101F2000FC1AA742BF4163467F42C91ACB1B9946A0
:101F300001235D4698465EE54B07FF083B43CC080E
:101F400092E6DC1B6046A342B641401A7642801BF3
:101F50008146000260D5FC1AA742BF4163467F421A
:101F6000C91ACB1B99465D4676E5FF084B073B43F4
:101F7000CC0867E60A00DB083A4300D16FE6624608
:101F8000520713436246D40880221203144207D03A
:101F9000C808104204D15D460400FB0849070B4302
:101FA0005A0FDB00DB08520713435DE64B07FF08BF
:101FB0003B43CC0849E6DC199C429B41614489467D
:101FC0005B4299444B461B0200D431E64A46174B0C
:101FD0001A400123914698462AE616006446203EA0
:101FE000F440A046202A05D040266446B21A944008
:101FF00023439A465446631E9C4143461C43DBE5FB
:1020000002000024002348E5DC19BC42BF416144C2
:1020100089467F42B94438E74B46234300D19FE6C7
:1020200006E6C046FE070000FF070000FFFF7FFF37
:10203000FF084B073B43CC0816E66246DB08520715
:1020400013436246D40880221203144207D0C80802
:10205000104204D15D460400FB0849070B435A0FA8
:10206000DB005207DB081343FEE50023014A1C0096
:1020700013E5C046FF07000070B505000C481C03BF
:1020800016005B000A034900120B490D240B5B0D7F
:10209000814208D0064A0020934203D120003043F9
:1020A000431E984170BD01202A43FBD1F2E7C04690
:1020B000FF0700000A0030B5134C53000903050068
:1020C000090B00205B0DD20FA34204DD0F488342B1
:1020D00002DD0F4BD01830BD8020400301430D4876
:1020E000C01A1F2808DD0C48C31AD9400B005842FB
:1020F000002AF0D11800EEE7084CC540A44663441E
:1021000099400B002B43F2E7FE0300001D04000082
:10211000FFFFFF7F3304000013040000EDFBFFFF0F
:1021200070B5002816D0C317C5185D40C40F28002D
:1021300000F04CF8114A121A0A2816DC03002E008F
:1021400015339E400B23181AC54052052D032D0B45
:10215000530D03E000240023002500261B052B431C
:10216000E40723433000190070BD0B388540520549
:102170002D0300262D0B530DF0E7C0461E04000072
:1021800010B5041E10D000F021F80F4B1B1A0A28BE
:1021900011DC0B222100121AD14015300A035B0515
:1021A0008440120B5B0D01E0002300221B0513434A
:1021B0002000190010BD22000B3882405B0512037D
:1021C0000024120B5B0DF1E71E0400001C2101230B
:1021D0001B04984201D3000C10391B0A984201D30A
:1021E000000A08391B09984201D30009043902A2E8
:1021F000105C40187047C04604030202010101014F
:10220000000000000000000010B5002903D1FFF716
:10221000DDFF203002E00800FFF7D8FF10BDC04608
:102220008023AC225B059A5810B5120716D4EC2215
:1022300020499858204A5050F0215858E521C900AB
:102240005050F42158581D495050F8215858E62153
:10225000C9005050FC215958194BD1500021164B40
:10226000184AC02099500432033199500421164A6B
:10227000FF319950154A1649164C99501649043A9F
:1022800099508421154A49009950154904329950B2
:102290006521144A80009950225813491140802228
:1022A000D2010A4322501149114A99508E21114AF4
:1022B000995010BD24070000001000402C070000BA
:1022C000340700000C050000340500003C05000048
:1022D0005555550000E100E05B06000014050000C4
:1022E000FF00030254050000FF00FFFF11D6BE8966
:1022F0001C05000024050000C22201211D4B920094
:10230000494299500021F93AFF3A99501421F0328C
:10231000FF31995005320439FF32FF399950A62216
:102320000F39D20099500422272806D80300253BF4
:10233000DBB2022B19D8104AD25CA1210D4BC90087
:102340005A500E490E4AC020995002210D4A4000B1
:102350001150116000220331FF315A5004315A509C
:1023600008315A5001325A60704702308840C2B278
:10237000E3E7C0460010004038AA0000AC09002086
:102380000405000000E100E080222B4B5200995828
:1023900010B5002904D0C12189005958C90727D494
:1023A0008622254B52009958002904D0C12189006A
:1023B0005958090719D482221F4B520099580029F5
:1023C00004D0C1218900595889070BD488231A4C9D
:1023D0005B00E258002A04D0C1229200A258D20623
:1023E00009D410BD00219950F0E700219950E2E78F
:1023F00000219950D4E70022E250104B186800F0F9
:102400009FF90F4B186800F09BF98023DB00E3581D
:10241000002B0CD00B4800F08BF800F08FF80A4B23
:10242000186800F08DF90122034B5A60D9E707487C
:1024300000F050FBF7E7C0460010004014AC00006D
:1024400018AC0000AC0900201CAC000028AA000059
:10245000F0B5C646012200B52C4B84B01F683B780E
:102460007D785C109B1014401A423BD1284800F044
:1024700031FB002C3ED0B878F9797B79BA7902909B
:10248000F878063D01903879EDB20090214800F0CF
:1024900021FB2900204800F01DFB002D2ED01F4BF2
:1024A0003E00002498460836315D4046013400F075
:1024B00011FBA542F8DC397A194800F00BFB1948EA
:1024C00000F008FB0024305D0300203B5E2B00D9A8
:1024D0002E20013400F010FBA542F4DC04B080BCD7
:1024E000B846F0BD104800F0F5FA094800F0F2FADD
:1024F000002CC0D10D4800F0EDFABCE7397A08484D
:1025000000F0E8FA074800F0E5FAE7E7AC0A002037
:102510006CAA000078AA0000A0AA0000B0AA0000DF
:10252000B8AA0000C8AA00003CAA000070AA0000D7
:10253000014B18607047C046AC0A0020F0B5574602
:1025400045464E46DE46E0B5654B664A1D689846F0
:10255000654B2978D3586F7899460B099A4685B010
:10256000EF2903D8614A9B00D3589F46604B9B4696
:1025700000235A46137001208B1003401C000300F7
:102580005C4E0B40CA10491001400240019300917B
:1025900023005949300000F0B9FA584B3A00196845
:1025A0005B46574800930196534600F093FAA8788B
:1025B0006B79AA79E9790290E878019028790090FE
:1025C000504800F087FA504800F084FA002F09D0F4
:1025D00000244E4E0235295D3000013400F07AFAB5
:1025E000A742F8DC49464A4800F074FAA923FF21C3
:1025F0003C4ADB00D3584748194000F06BFA434689
:102600001D682C782309022B3ED0042B3FD0002BD1
:102610003AD005B0F0BCBB46B246A946A046F0BDD4
:10262000334B9B465A463C4B41CB41C2A3E7304B10
:102630009B465A46394B51CB51C2188810809B7823
:10264000937098E72A4B9B465A46354B51CB51C263
:102650001B6813608FE7264B9B465A46314B11CBC4
:1026600011C21B78137086E7214B9B465A462E4BAE
:1026700051CB51C21B6813607DE71D4B9B465A46E8
:102680002A4B51CB51C276E7FFF7E2FEC1E728485B
:102690006F7800F01FFAA3071ED5A878E9796B7947
:1026A000AA790290E878063F01902879FFB200905D
:1026B000204800F00FFA39001F4800F00BFA002FF5
:1026C000A7D00024114E0835295D3000013400F0F8
:1026D00001FAA742F8DC9CE7184800F0FBF9DCE7B8
:1026E000AC0A0020001000400C040000D8AB000031
:1026F000B00A0020B00B002024AB0000B00C00207A
:102700004CAB000074AB000098AB0000B0AA000016
:10271000A4AB0000B4AB0000D4AA0000DCAA000007
:10272000ECAA0000FCAA000014AB000008AB0000FB
:102730006CAA000078AA0000C4AB000070AA0000D8
:1027400001228240A02110B51400A120044BC9052C
:10275000CB58C0009C431340024A0C508B5010BD14
:10276000040500000C050000A02303220B49DB0533
:102770005A5004315A500A495A5004315A50A12231
:102780008021D200890399508021C903995080216A
:10279000090499508021490499507047540700005A
:1027A0005C070000802280210023D205490010B57B
:1027B0005350013313605358002BFCD0A222042144
:1027C000134BD20099500021083A9950FA2138321F
:1027D0008900995001228020E939FF395A5005318A
:1027E000FF3140025850C02480200A49C0006400D4
:1027F000085108601A60FFF7B7FF00F089F8064833
:1028000000F068F9FFF70CFD2520FFF775FDFEE7E6
:1028100000A0004000E100E020AC0000FEE7C04660
:10282000A0230021034A5B00D150034A13680133FF
:102830001360704700A00040B00C0020FEE7C046C7
:102840000D480E4B10B5984207D2013B1A1A920858
:1028500001320B49920000F097F80A480A4B98425F
:1028600007D2013B1A1A920801320021920000F0AF
:10287000DDF8FFF797FFFEE700000020AC0900201D
:102880008CB40000AC090020FC14002070B5161EAA
:1028900007DD0C008D182078013400F065F8AC429B
:1028A000F9D1300070BDC04606490B881A18802047
:1028B000C000824203DA04480A80181870470120D9
:1028C0004042FBE7B4140020B40C00200922012090
:1028D000014B40421A607047B81400200020704736
:1028E0000020704780239B0100204B607047C0464A
:1028F0000120704710B5FFF791FFFEE71622012077
:10290000014B40421A607047B81400200120704704
:10291000A023A1228021DB05D200890099500B4A17
:10292000FE39FF3999500A4B0A4A0B499950002148
:102930000A4A99500A4A093199500C3A0539995076
:1029400001229A60074A1C31995070472407000001
:10295000002000402405000000E0D7016C050000C5
:102960000C0500001C0500008E21054A4900535843
:10297000002BFCD000235350024BD0507047C04670
:10298000002000401C050000F0B5C64600B50F2A27
:1029900041D903270D003E0005430C0003002E40E3
:1029A0002F423DD11500103D2D09A8462D01AC4602
:1029B000844427681D001F6067685F60A7689F6088
:1029C000E7681034DF6010336545F2D145460F23C8
:1029D0000C2401352D01491913404519144222D008
:1029E0008C59AC5104369C1B032CF9D8043B9B0832
:1029F00001339B00ED18C91803231A40561E002A04
:102A000006D00023CC5C1A00EC5401339642F9D175
:102A100080BCB846F0BD0500561E002AF1D1F7E78C
:102A20000500561EEDE71A00F6E7C046F0B50500B2
:102A3000830749D0541E002A45D003000326CAB29A
:102A400002E00135013C3ED301332A703342F8D114
:102A5000032C30D9FF220A40150215432A041543DE
:102A60000F2C34D92700103F3F093E01B4461E0009
:102A70001A0010366644156055609560D5601032B6
:102A8000B242F8D101373F01DB190F270C22274052
:102A900022403C00002A0ED03E1FB608B400A446D7
:102AA0001A001C1D644420C2A242FCD1032401363A
:102AB000B6009B193C40002C05D0C9B21C191970F6
:102AC00001339C42FBD1F0BD03001400C0E7270096
:102AD000E2E7C0460FB400B5064983B004AB08680E
:102AE00004CB8168019301F01BFE03B008BC04B065
:102AF0001847C0460000002010B5034B01001868BD
:102B0000826805F0C9FF10BD000000200EB400B5BA
:102B10000B499CB0079104910A491DAB05910A49E4
:102B200004CB02900690086802A9019300F00EF809
:102B30000023029A13701CB008BC03B01847C046AB
:102B4000FFFFFF7F0802FFFF00000020F0B5DE4618
:102B50004E4657464546E0B5D7B00C0091460B911E
:102B60000F93834605F006F8036818001C9306F0DF
:102B700061F81B90A3891B0605D523690693002BDA
:102B800001D101F01AF82DAB2A93002300242C93D5
:102B90002B93159300234E461693179400231D93F1
:102BA0001E931A931F932093099333782DAF002B14
:102BB00000D10AE1340003E063780134002B38D0FF
:102BC000252BF9D1A51BB44237D12378002B00D196
:102BD000FBE0631C9A4600231CAAD37601225242D2
:102BE00007920022637815005446089201341A00B7
:102BF000203A5A2A52D8C54992008A5897465846D0
:102C000004F0B8FF43681800209306F013F88046DC
:102C10001F90584604F0AEFF83681A934346002B7A
:102C200001D000F058FE2378E0E720231D432378ED
:102C3000DCE7A51BB44200D1C7E02C9B3E605B19CA
:102C40002C932B9B7D60069301332B93072B06DC83
:102C50000837099B9C46AC4463460993B5E7584640
:102C60000B992AAA06F04AF8002809D12DAFF0E7FF
:102C7000B3460E9B002B03D01900584604F074FE97
:102C80000B9B9B895B0601D501F02DFC099857B081
:102C9000F0BCBB46B246A946A046F0BDA246A84637
:102CA0001293002B00D190E03DAE337000231CAA9C
:102CB000D37600220E92013201330A92002206934B
:102CC0000023079218921392149202224146114057
:102CD000109141460A4202D0069A0232069284229C
:102CE00041461140119141460A4205D1089A069980
:102CF000541A002C00DDCEE02C9C002B11D01CAA15
:102D00001B23944663443B6001237B602B9B01346F
:102D1000199301332C942B93072B01DD00F032FC27
:102D20000837109B002B0ED023AB3B6002237B6047
:102D30002B9B0234109301332C942B93072B01DD32
:102D400000F013FC0837119B802B00D120E3079B78
:102D50000A9A9D1A002D00DD5EE34346DB0500D58F
:102D6000B6E20A9B3E609C467B602B9B64440793C3
:102D700001332C942B93072B00DD13E108374346D6
:102D80005B0706D5089B069A9E1A002E01DD00F00F
:102D900006FC089B069A934200DA1300099A9446AF
:102DA0009C4463460993002C00D06EE300232B93D0
:102DB0000E9B002B03D058460E9904F0D5FD5646C5
:102DC0002DAF3378002B00D0F4E62C9B0693002B1C
:102DD00000D155E758460B992AAA05F08FFF4FE717
:102DE000303B210000201A00830018180B001B78CC
:102DF000400010181A000131303A0C00092AF3D9AA
:102E00000890F4E612930723A2460F9CA8460734C5
:102E10009C43220018CA16931794169B179C0F9276
:102E20001D0001226400640828002100384B524232
:102E3000FFF722F9002801D000F076FD01222800DA
:102E40002100334B5242FDF7D1FA002801D000F0A7
:102E50006BFD1698179900220023FDF7BDFA002894
:102E600001D001F0C6F81CABDB7E129A472A01DCC8
:102E700001F097F8274E8022414691437D3A069211
:102E8000002288460E9203320A920022079218927C
:102E9000139214924CE12C9A2B9B1F4D102C26DD83
:102EA0001021300089465E46390083460B9F03E0BF
:102EB000103C0831102C16DD4846103201330D60ED
:102EC00048602C922B93072BF2DD390030002AAAA0
:102ED00005F014FF002800D0CAE6103C2C9A2B9B6A
:102EE0002DA9102CE8DC0F005946B3460E007C607B
:102EF0000133A4183D602C942B93072B01DD00F0C7
:102F000086FF1CABDB7E0837F7E6C04674AC0000DA
:102F1000FFFFEF7F34AC0000E0AD0000159B3E608A
:102F2000012B01DC00F002FC01237B602B9B0134B0
:102F30005D1C2C9407932B95072D01DD00F082FC7E
:102F400008371C9B01353B601B9B2B959C466444BA
:102F50007B602C94072D01DD00F082FC08370022F5
:102F6000169817990023FDF731FA002801D000F0D8
:102F700004FC159B0136013BE41801353E607B6083
:102F80002C942B95072D00DDE0E3083726AB3B6042
:102F90001E9B01359C4664447B602C942B95072D29
:102FA00000DCEBE658460B992AAA05F0A7FE00289C
:102FB00000D05EE62C9C2DAFE1E612930023A246E2
:102FC0000F9C1CAA40CCA846D376002E01D100F05D
:102FD0008AFF079A531C01D100F0FFFD0021300049
:102FE00005F008F90E90002801D101F009F90E9BB7
:102FF000991BCA43D2170A91114000221CABDB7EF9
:1030000006910F940E9207921892139214928FE0E9
:10301000A2460F9C129308CC3DAE337000231CAA2D
:10302000A846D3760F9444E60F9A08CA0893002B5B
:1030300001DB00F02DFC089B0F925B4208930423F8
:103040001D432378D2E52B231CAAD3762378CDE524
:1030500080231D432378C9E52378601C2A2B01D1E6
:1030600001F032FB1A000024303A079401000400FA
:10307000092A00D9BBE50020830018180B001B7833
:10308000400080181A000131303A0C00092AF3D9A7
:103090000790ACE501231D432378A7E51CABDB7E3D
:1030A000002B00D0BFE520231CAAD37623789DE512
:1030B000A246129310242B0023431C00A30600D425
:1030C0009DE307220F9B0733934319000CC90C9211
:1030D0000D9301230F9100221CA9CA760798421C68
:1030E00000D1C6E080222100914388460C990D9AB8
:1030F0000D00154300D0BBE0002801D000F0E4FE35
:10310000002B00D034E301331A0022400A9256AE5D
:10311000234200D0C0E30A9A07991CABDB7E0692DB
:103120008A4200DA069100220E92189213921492AB
:10313000002B00D1C9E5069A01320692C5E52A00A6
:10314000129310231A43A246904643469B0600D48E
:103150004BE307230F9C07349C43220018CA0C93AF
:103160000D940F924346DC4C23401C000023B2E731
:1031700008231D43237839E52A00129310231A43AC
:10318000A246904643469B0600D443E307230F9C88
:1031900007349C4301339C46A444634622680F9342
:1031A00063680C920D93002B00DA3EE3079B4446C4
:1031B000013307D080239C430C9A0D9B11001943C7
:1031C00000D1D0E20C9A0D9B002B00D08CE1092A93
:1031D00000D989E163220C9B3DA930338B54012334
:1031E0000A931CABE7269C46A046664493E72378E7
:1031F0006C2B01D100F0DBFC10221543F6E42378A0
:10320000682B01D100F0B4FC40221543EEE40F9B83
:10321000A24604CB02240C9200220D922A003021F7
:103220002243140023AA11704831517078220F9361
:10323000AA4B12921D9302234DE72B00A2469B0638
:1032400000D53EE32B00DB0601D500F044FE2B0049
:103250005B0601D500F0F4FE2B009B0501D400F0C5
:103260003AFE0F9C099A08CC56461A700F94A8E5AE
:103270004446012BA6D056AE022B00D10FE1072306
:10328000A046B9469C460C9A0D9B5F07D50861463F
:10329000D8082F4303003800114034003031013E7C
:1032A0003A0031701843F0D1250044464F460C9245
:1032B0000D93E20700D453E1302900D150E13023CF
:1032C000013E023D337056AB5B1B2E000A9322E792
:1032D000129B652B00DC21E616981799002200232B
:1032E000FDF774F8002800D196E17D4B01343B6076
:1032F00001237B602B9B2C94079301332B93072B8B
:1033000001DD00F0A9FD0837249B159A934200DBEC
:10331000B4E21C9B3B601B9B9C467B602B9B6444E4
:10332000079301332C942B93072B01DD00F027FC2E
:103330000837159B5D1E002D00DC20E5694A2B9B9C
:103340009146102D01DC00F098FD0B983A00210009
:1033500010264C465F46814605E00832103D102D90
:1033600001DC00F086FD10310133146056602C91B1
:103370002B93072BF1DD494638002AAA05F0BEFC45
:10338000002801D000F0E9FE2C992B9B2DAAE5E73F
:10339000089B069A9D1A002D00DCD8E4514A2B9B0D
:1033A0009146102D26DD3A0021000B9F4C46B14678
:1033B0005E4603E0103D0832102D16DD102010315E
:1033C0000133146050602C912B93072BF2DD3900F0
:1033D00030002AAA05F092FC002800D048E4103DF5
:1033E0002C992B9B2DAA102DE8DCB34617004E46D6
:1033F000A1460C004A46641901333A607D602C9462
:103400002B93072B01DD00F052FD079B0A9A08372A
:103410009D1A002D00DCA0E4324A2B9B9146102D12
:1034200027DD3A0021000B9F4C46B1465E4603E083
:10343000103D0832102D17DD1020103101331460BB
:1034400050602C912B93072BF2DD390030002AAA13
:1034500005F054FC002801D0FFF70AFC103D2C9920
:103460002B9B2DAA102DE7DCB34617004E46A14634
:103470000C004A46641901333A607D602C942B930A
:10348000072B00DDA4E1083767E458460B992AAA08
:1034900005F034FC002800D188E4FFF7EAFB0F2098
:1034A0000C9A0D9BA446B8461D9F01001140795C03
:1034B0001C071509013E2C43317019090B0021002E
:1034C00022001943F1D10C920D9356AB9B1B47463A
:1034D0000A93E0461FE6C046FFFBFFFF40AC00003A
:1034E00070AC0000F0AD0000802552460023ED00D6
:1034F0002540A846A1460C9C0D9DBA4656AE1F001D
:1035000006920BE00A22002320002900FCF78CFF22
:10351000002D01D100F07FFD04000D000A220023E0
:1035200020002900FCF780FF4346013E3032327014
:103530000137002BE6D01A9B1B789F42E2D1FF2F68
:10354000E0D0002D01D000F007FC092C01D900F0DB
:1035500003FC069B0C940D9515974C4657469A46CE
:1035600056AB9B1BA0460A93D5E558460B992AAA51
:1035700005F0C4FB002801D0FFF77BFB2C9C2DAF8E
:10358000FFF7E1FB58460B992AAA05F0B7FB002884
:1035900001D0FFF76EFB2C9C2DAFFFF7C2FB2B9BDE
:1035A000DF4D102E23DD10220B9990468946220014
:1035B0005C4603E0103E0837102E16DD41461032FF
:1035C00001333D6079602C922B93072BF2DD494645
:1035D00020002AAA05F092FB002800D0EAE3103E62
:1035E0002C9A2B9B2DAF102EE8DCA3461400A419B7
:1035F000013360C72C942B93072B01DCFFF7C9FB29
:1036000058460B992AAA05F079FB002801D0FFF74C
:1036100030FB2C9CFFF7BDFB2499002900DCCCE398
:10362000149A159B15009A4200DD6EE2002D0CDD08
:103630002B9B6419079301333E607D602C942B9380
:10364000072B01DD00F07CFD0837EB43DB171D4045
:10365000149B5D1B002D00DDC5E2149B9C46434678
:10366000B44465465B0500D5E5E2249B159A934278
:1036700004DB4246D20701D400F0D6FC1C9A3A6023
:103680001B9A94467A602B9A6444079201322C94D8
:103690002B92072A01DD00F063FD083715998C464F
:1036A000CB1A6644721B1E00934200DD1600002EEA
:1036B0000CDD2B9AA419079201323D607E602C9498
:1036C0002B92072A01DD00F0CEFD0837F543ED17F8
:1036D00035405D1B002D01DCFFF751FB914A2B9B10
:1036E0009146102D00DCC8E30B983A00210010260B
:1036F0004C465F46814604E00832103D102D00DC48
:10370000B7E310310133146056602C912B93072BD3
:10371000F2DD494638002AAA05F0F0FA002801D067
:1037200000F01BFD2C992B9B2DAAE6E701234246B6
:10373000134201D0FFF7F8FB7B602B9B01345D1C2B
:103740002C9407932B95072D00DC1EE458460B990B
:103750002AAA05F0D3FA002801D0FFF78AFA2C9C98
:103760002B9D2DAF12E4079B002B00D032E5A04625
:10377000002356AE07930A93CDE4159B5E1E002EE0
:1037800001DCFFF703FC674B9946102E00DCE2E3F7
:103790000B9A23004C46914604E00837103E102E49
:1037A00000DCD6E31022103301353C607A602C93A4
:1037B0002B95072DF1DD494658462AAA05F09EFAB9
:1037C000002801D0FFF755FA2C9B2B9D2DAFE5E784
:1037D00058460B992AAA05F091FA002801D0FFF764
:1037E00048FA2C9C2DAFFFF7B8FA4346DB065CD5B0
:1037F0000F9C08CC0C9300230F940D93B2E4E306C6
:1038000000D485E00F9B04CB0C9200220F930D9205
:10381000012360E44346DB066ED50F9C08CC0C9375
:10382000DB170D930F9400D4C0E40C990D9A00247B
:103830004B4294410C930D942D231CAAD3764446FD
:103840002C3B4BE458460B992AAA05F057FA00285E
:1038500001D0FFF70EFA2C9C2B9D2DAFFFF771FBCB
:1038600058460B992AAA05F049FA002801D0FFF71B
:1038700000FA2C9C2B9D2DAFFFF771FB4346DB0715
:1038800001D4FFF77CFA44E5A246A846129379E4F6
:1038900023780F92FFF7AAF9302162333DAAD15461
:1038A0001CABE7269C46664435E443465B0600D4E1
:1038B0007AE30F9C08CC9BB20C9300230F940D93DA
:1038C00050E40F9C099A08CC56461A60D2175A60E9
:1038D0000F94FFF776FA1A9B002B01D1FFF7A3F99B
:1038E0001A9B1B78002B01D1FFF79DF98023DB0089
:1038F0001D432378FFF77AF943465B0600D443E380
:103900000F9C08CC1BB20C93DB170D930F944AE469
:10391000630600D455E30F9B04CB92B274E7C04614
:10392000E0AD0000F0AD00001698179902000B0002
:10393000FEF7A2FB002801D000F03CFE129B612B99
:1039400001D100F0B9FD412B01D100F0A1FC079B92
:10395000013300D197E32023129A9A430A92472A0F
:1039600001D100F0ECFD802342465B001A4318921F
:103970001699179A002A01DA00F09BFD00230D002A
:10398000914619930E930A9B462B00D1F6E3452BE3
:1039900001D100F096FD28AB049325AB039324AB33
:1039A0000293079B2A0001930223584600934B463B
:1039B00002F030FE0A9B0600472B01D000F0A6FE65
:1039C0004346DB0701D500F027FD42460692189AD0
:1039D000289B90469B1B15930A9B472B00D16CE3B9
:1039E0000A9B462B01D100F012FC249B1493149BDC
:1039F000013B984624930A9B412B01D100F0B4FD72
:103A000048226B469B1800221B7828201CA9091805
:103A10000B7041462B23002904DA149B2738C31A64
:103A200098462D2329201CA909180B704346092B01
:103A300001DC00F0A9FD1CAA3723944663444546E7
:103A40001C00B946B04628000A21FCF7A9FC260054
:103A50003031013C280021700A21FCF7BBFB2F000C
:103A60000500632FEFDC4F46B14601001CA84B4612
:103A7000372284463031023BC9B26244464619704F
:103A8000934201D300F044FE2A22624400E01978F8
:103A90001CA81170844637210133614401328B42E6
:103AA000F5D139234A4663449B1A2A22624494463C
:103AB00026AA63449B1A1E93159A1E9B9446634440
:103AC0000A93012A01DC00F0C8FD1B9A0A9B944668
:103AD00063440A93DB4B069A1A401300802252007B
:103AE0001A4390460A9AD343DB171A4000230692E2
:103AF000189313931493199B002B00D00BE300220F
:103B00001CABDB7E0792FFF713FB1D1E00DD8FE56C
:103B10009BE5A246A8461293CB4B1D9343469B06BA
:103B200000D431E107230F9C07349C43220018CABC
:103B30000C930D940F924346DB070DD50C9A0D9B09
:103B40001100194308D0302223AB1A70129A5A7010
:103B5000424602231A4390464346BA4C23401C0077
:103B60000223FFF7B8FAA24612932C00FFF7A6FA39
:103B70009933FF331D4301342378FFF737F8584654
:103B80000B992AAA05F0BAF8002801D0FFF771F8BE
:103B90002C9C2DAFFFF7CDFBA246A8461293FFF752
:103BA000D4FA1293A94BA246A8461D93B6E74C3B04
:103BB0001D4301342378FFF719F84021584604F0DB
:103BC00057F80B9B18601861002801D100F093FD95
:103BD00040230B9A5361FEF7D6FF300005F02AF818
:103BE0000100FFF706FA9A4A2B9B9146102D00DC44
:103BF000F3E13A0021000B9F4C46B1465E4604E0DB
:103C00000832103D102D00DCE2E1102010310133AC
:103C1000146050602C912B93072BF1DD390030009C
:103C20002AAA05F06BF8002801D0FFF721F82C999B
:103C30002B9B2DAAE5E7159B0B999C46B444634644
:103C40000A93834B22009946534610934346884675
:103C500011931399189B2C009A4612963B001A9FB9
:103C6000002935D05146002936D11399013F013939
:103C70001391209919601F998C4659602B996244C1
:103C8000079101312C922B91072900DD86E0083342
:103C90000A99081B39780D00814200DD0500002DCE
:103CA0000CDD2B995219079101311C605D602C923B
:103CB0002B91072900DDEDE039780833E843C01780
:103CC00005404D1B002D0CDC641813990029C9D147
:103CD0005146002900D1DDE1012149428C46E244F0
:103CE000C7E748462B990790102D27DD5846A34675
:103CF00044461026B8462700040003E0103D083370
:103D0000102D15DD48461032013118605E602C928E
:103D10002B910729F2DD390020002AAA04F0EEFFDA
:103D2000002847D1103D2C9A2B992DAB102DE9DCA2
:103D3000260038005C464746B3468046079852192D
:103D4000013118605D602C922B91072900DDE9E1BB
:103D5000397808336418B8E71F9B2099F61A1A00BF
:103D6000300004F095FF1A9920004B788C465A1EBB
:103D700093419C4463460A221A9329000023FCF7CE
:103D800053FB0027FFF7C8FB4346DB064ED50F9CCD
:103D900008CC0C9300230F940D93CCE64146584673
:103DA0002AAA04F0ABFF002801D0FEF762FF2C9A8C
:103DB0002DAB6DE7A346FEF75CFF264B01343B605D
:103DC00001237B602B9B2C94079301332B93072BB0
:103DD00000DD13E10837002900D097E042460123B7
:103DE0001340159A134301D1FEF7C9FF1C9B3B609A
:103DF0001B9B9C467B602B9B6444079301332C9454
:103E00002B93072B00DD23E13A00083291E058465E
:103E10000B992AAA04F072FF002801D0FEF729FFAF
:103E20001CABDB7E2C9C2DAFFEF767FF43465B0689
:103E300000D49DE00F9C08CC9BB20C9300230F9400
:103E40000D9378E6FFFBFFFF40AC000054AC000090
:103E5000F0AD000070AC000058460B992AAA04F09F
:103E60004DFF002801D0FEF704FF2C9C2DAFFFF77B
:103E70004BFABB46A14617000C004A4664190133B1
:103E80003A607D602C942B93072B01DCFEF776FFC4
:103E9000FFF788F8414658462AAA04F02FFF002869
:103EA00001D0FEF7E6FE39782C9A2DAB06E758468E
:103EB0000B992AAA04F022FF002801D0FEF7D9FEB0
:103EC0002C9C2DAFFEF743FF4446012B01D0FFF79A
:103ED000D2F9FFF77FF90F9C099A08CC56461A6071
:103EE0000F94FEF76EFF079B0693062B00D998E010
:103EF000002300220E93069BE34E0A930F940023A7
:103F00000792189213921492FEF7DFFE1C9B3B60FF
:103F10001B9B9C467B602B9B6444079301332C9432
:103F20002B93072B00DD93E03A000832002900DADA
:103F300079E2159901338C466444166051602C94E3
:103F40002B93072B01DDFFF72DF808321700FEF742
:103F500016FFA1461C004B46A41901353B607E604C
:103F60002C942B95072D01DCFFF70FF8FFF7EEFBE4
:103F700043460F9C9B0500D40AE708CCDBB20C93A8
:103F800000230F940D93D6E543460F9C9B0500D468
:103F900044E408CC5BB20C93DB170D930F94FFF74E
:103FA00002F9BA4EFEF767FF43460F9C9B0500D40B
:103FB0001FE408CCDBB20C9300230F940D93FFF7A2
:103FC000D1F8A30500D41DE40F9B04CBD2B21BE4AF
:103FD000B34617004E46A1460C004A466419013309
:103FE0003A607D602C942B93072B3FDC0837FFF75A
:103FF00034FB2D231CAAD376FEF737FF58460B99C6
:104000002AAA04F07BFE002801D0FEF732FE249994
:104010002C9C2DAFDFE6092C01D9FFF77DFAFFF7C5
:1040200098FA0623069363E7159A94466644D31AD2
:10403000761B9E4201DCFFF749FB1E00FFF746FBA3
:104040000F9C099A08CC56461A800F94FEF7B9FEC9
:1040500058460B992AAA04F051FE002801D0FEF719
:1040600008FE24992C9C2B9B2DAA5FE758460B99A0
:104070002AAA04F043FE002801D0FEF7FAFD2C9C8A
:104080002DAFFFF7EAFA2023129A9A431A3B0A92BD
:10409000079368E41099129E1A971F00159B8A4691
:1040A0001199F3182000250088461400984201D881
:1040B000FFF7DBFA1D00FFF7D8FA249B1493DA1CF4
:1040C00002DB079A934207DD129B023B1A00129310
:1040D00020239A430A928AE4149B159A934200DAA9
:1040E000AFE0069A0A93D20703D51B9A944663441D
:1040F0000A93069B5B0503D5149B002B00DD7CE235
:104100000A9AD343DB171A406723069212930023BF
:1041100018931393EFE42D231CAAD3760022079261
:10412000FFF709F8414658462AAA04F0E7FD00289F
:1041300001D0FEF79EFD39782C9A2DAB6418C4E5AA
:1041400058460B992AAA04F0D9FD002801D0FEF7A1
:1041500090FD2C9C2DAFFFF778FABB46FEF789FD4A
:1041600058460B992AAA04F0C9FD002801D0FEF791
:1041700080FD249B2C9C2DAFFFF790FA28AB049375
:1041800025AB039324AB0293079B2A0001930323DF
:10419000584600934B4602F03DFA03780600302B58
:1041A00021D0249C079B9C46644443460693189B5D
:1041B000341998460023002228004946FCF706F9E6
:1041C0002300002801D0FFF705FC289BA34201D360
:1041D000FFF700FC30215A1C28921970289B9C4242
:1041E000F9D8FFF7F7FB0022002328004946FCF727
:1041F000EDF80028D5D10124079BE41A2494D1E7D7
:10420000079A1CABDB7E06920F94FEF73DFE249AC4
:1042100001231492002A00DC36E206990B4007992C
:104220000B4300D0A6E1149B0A9366231293069BCE
:104230005B0500D5E3E10A9AD343DB171A400692E7
:1042400065E71B9A159B944667221292149A634461
:104250000A93002AEBDC981A421CD343DB170A921C
:104260001A40069253E758460B992AAA04F046FDD5
:10427000002801D0FEF7FDFC159B249A2C9C9B1A6C
:104280002DAFFFF723FAC04668AC000030AC000049
:10429000302223AB1A70283202245A7043461C4342
:1042A000079B632B00DDE3E000233DAE0E938123EB
:1042B0001698179942465B001A431892002900DAB3
:1042C00099E02022129D002395430A95A0460500FF
:1042D00089461993129B612B00D177E1412B01D0C4
:1042E000FFF751FB280024AA494604F00FFCFF23E6
:1042F00000229B05FDF7C2F80022002304000D00F8
:10430000FCF764F8002801D001232493D84B0693CE
:10431000079BB1469C46B44463461393013B1493F8
:10432000534615934346BA46219306E000220023E4
:10433000FCF74CF8002800D0DAE00022CD4B20003A
:104340002900FDF79BF80D000400FDF7B3FE070000
:10435000FDF7E6FEB04602000B0020002900FDF745
:10436000F9FA4246069B0136DB5D04001370149B8C
:104370000D009B1A1093139B11969845D6D1159B4F
:10438000139757469A46219B149298464B46B1463E
:104390001E0001235B421093002220002900B64B2F
:1043A000FCF72EF800286CD1002220002900B24B27
:1043B000FCF70CF8002802D0139BDB0761D4109B9C
:1043C000302219004944002B0CDB4B4618001A70B0
:1043D00001338142FAD1119A109B944601339C44D7
:1043E00063461193119B9B1B159343460693189BA1
:1043F0009846FFF7F1FA2023A046129A9A430A92B0
:104400008022169B179C12061D00944623006344CD
:1044100099462D2319935DE7079BF41843460693AD
:10442000189B9846C6E64D42103100DB60E1934987
:104430001027894621004C46B1465E4603E008320B
:10444000103D102D60DD10310133146057602C9148
:104450002B93072BF3DD30000B992AAA04F04EFCB6
:10446000002801D0FEF704FC2C992B9B2DAAE7E72E
:104470005846591C03F0FCFB061E00D131E10E909A
:1044800015E7149B069928934B46013B1A78C97B84
:104490008A4207D130201870289B013B28931A7854
:1044A0009142F8D0392A00D1DEE00132D2B21A703E
:1044B00098E700230E93A3E7302223AB1A7048320B
:1044C000EAE6079B2A005C1C28AB049325AB039308
:1044D00024AB029302235846009301944B4602F00A
:1044E00099F8060061E601235B420993FEF7CEFBD3
:1044F000159B139757469A4643461493219B98461B
:104500004B46B1461E0047E7B3464E46A1460C0057
:10451000494664190133116055602C942B93072B85
:1045200000DC72E458460B992AAA04F0E7FB002845
:1045300001D0FEF79EFB2C9C2B9B2DAAF9E4079B38
:10454000002B01D101230793802342465B001A43CD
:1045500018921699179A002AABDB00230D0091469A
:104560000E931993FFF717FA129B01220F33DBB258
:10457000FFF74BFA1B9B9C4662448C46944463466F
:104580000A936623129352E61CA92A238C4663449D
:10459000002A06D10A002A21302352181370053B45
:1045A000634440463030187026AA01339B1A1E938C
:1045B000FFF782FA179B002B00DA81E01CABDB7E51
:1045C000129A472A79DD2E4EFEF755FC280024AAC0
:1045D000494604F09BFAFF2300229B05FCF74EFF9F
:1045E0000022002304000D00FBF7F0FE002801D09C
:1045F00001232493234B06938AE6672312931A9987
:104600000B78FF2B00D17DE0002218921392149AB0
:1046100005E01398013101301390FF2B0AD093422B
:1046200008DAD21A4B78002BF3D1189B0133189378
:104630000B78F2E71A911492189A139B94461F9ADA
:10464000634453430A9A94469C446246D343DB171F
:104650000A921A400692FFF74EFA069BDB0701D436
:10466000FFF738FAFFF731FA069A927A1A70B9E62C
:1046700054AC0000000030400000E03FF0AD00000E
:104680003CAC000040AC0000069A1340079A13436C
:1046900006D10123069365331293653B0A9336E5F1
:1046A00094461B9B581C84446246D343DB170A92F2
:1046B0001A4066230692129329E5174EFEF7DBFB9C
:1046C0002D231CAAD3767BE70F9A08CA0793002BE9
:1046D00002DA01235B42079363780F920400FEF72E
:1046E00085FA40230B998A8913438B81FEF7C8FA18
:1046F0000A4989460CE70C235A4613600D3B09937F
:10470000FEF7C4FA00231893139395E7079C4CE532
:1047100002231E93FFF7D0F938AC0000F0AD000083
:10472000F0B5DE464E4645465746E0B5D7B083461F
:10473000894690461C000F9303F01CFA036818008A
:104740001C9304F077FA5B461B90002B03D09B6B05
:10475000002B00D15AE24B465B6EDB0700D5B3E07D
:104760004B460C21595E4B469B899A0500D4A7E025
:1047700080229201134209D10A434B4649469A814D
:10478000496EDE4B0B4049464B6693B21A0746D53D
:104790004A461269002A42D01A221A400A2A4CD0EC
:1047A0002DAB2A93002300242C932B9315930023E5
:1047B00046461693179400231D931E931A931F9336
:1047C000209309933378C8462DAF002B00D123E105
:1047D000340003E063780134002B5BD0252BF9D142
:1047E000A51BB4425AD12378002B00D114E1631CDD
:1047F000069300231CAAD37601225242089200227B
:1048000063785D4614000A92069A013206921A00F5
:10481000203A5A2A69D8BA4992008A589746494696
:10482000584601F0E5FD4B46002801D001F038FC68
:104830001A229B891A400A2AB2D14A460E21525E98
:10484000002AADDB4A46526ED20703D49B0501D441
:1048500001F01BFA230042464946584601F082FD0A
:10486000099000F0A7FC280003F084F943681800C1
:10487000209304F0DFF981461F90280003F07AF9B5
:1048800083681A934B46002B01D000F054FE069B20
:104890001B78B9E7A51BB44200D1BDE02C9B3E605C
:1048A0005B192C932B9B7D60069301332B93072B75
:1048B00010DC0837099B9C46AC446346099392E799
:1048C0004B46986D03F05EF94B460C21595E4B4602
:1048D0009B894DE7414658462AAA04F0DDFA002894
:1048E00001D001F0A0FC2DAFE4E7A246AB46129345
:1048F000002B00D190E03DAE337000231CAAD3768C
:1049000000220E92013201330B9200220793002302
:10491000089218921392149202225146114010915B
:1049200051460A4202D0079A023207928422514627
:104930001140119151460A4205D10A9A0799541A19
:10494000002C00DDCDE02C9C002B11D01CAA1B23D9
:10495000944663443B6001237B602B9B0134199395
:1049600001332C942B93072B01DD00F059FC083701
:10497000109B002B0ED023AB3B6002237B602B9B54
:104980000234109301332C942B93072B01DD00F09C
:104990003CFC0837119B802B00D173E3089B0B9ADA
:1049A0009D1A002D00DDADE35346DB0500D50EE377
:1049B0000B9B3E609C467B602B9B644408930133B9
:1049C0002C942B93072B00DD15E1083753465B072A
:1049D00006D50A9B079A9E1A002E01DD00F02BFCDB
:1049E0000A9B079A934200DA1300099A94469C4462
:1049F00063460993002C00D0C1E300232B930E9B48
:104A0000002B03D058460E9902F0AEFF069E2DAF44
:104A10003378002B00D0DBE62C9BC1460693002B9D
:104A200001D001F046F800232B93B7E3303B002080
:104A30001A000699830018180B001B784000101804
:104A40001A00303A0131092AF4D906910A90DEE6BB
:104A500012930723A2460F9CAB4607349C432200C7
:104A600018CA16931794169B179C0F921D000122CB
:104A70006400640828002100224B5242FDF7FCFA32
:104A8000002801D000F098FD0122280021001D4BD4
:104A90005242FBF7ABFC002801D000F08DFD1698C8
:104AA000179900220023FBF797FC002801D000F0A3
:104AB000FBFF1CABDB7E129A472A01DC00F0E1FF12
:104AC000114E8022514691437D3A079200228A4638
:104AD0000E9203320B9200220892189213921492B3
:104AE00068E12C9A2B9B094D102C31DD1021894651
:104AF00039004746B0465E460EE0C046FFDFFFFF86
:104B000000AE0000FFFFEF7F34AC00006CAF000090
:104B1000103C0831102C17DD4846103201330D606F
:104B200048602C922B93072BF2DD390030002AAA23
:104B300004F0B2F9002801D000F0E5FE103C2C9AF8
:104B40002B9B2DA9102CE7DCB3464646B8460F0038
:104B50007C600133A4183D602C942B93072B01DD5E
:104B600000F0C3FE1CABDB7E0837EDE6159B3E6014
:104B7000012B01DC00F01DFC01237B602B9B013429
:104B80005D1C2C9408932B95072D01DD00F093FEFE
:104B900008371C9B01353B601B9B2B959C4664444E
:104BA0007B602C94072D01DD00F092FE0837002277
:104BB000169817990023FBF709FC002801D000F094
:104BC00016FC159B0136013BE41801353E607B6005
:104BD0002C942B95072D01DD00F0FCFB083726AB4C
:104BE0003B601E9B01359C4664447B602C942B9556
:104BF000072D00DCE9E6414658462AAA04F04CF9A4
:104C0000002800D0C3E22C9C2DAFDFE6584602F00E
:104C1000BDFDA0E520231C43069B1B78F4E5129301
:104C20000023A2460F9C1CAA40CCAB46D376002E94
:104C300001D100F00BFE089A531C01D100F09CFE3C
:104C40000021300003F0D6FA0E90002801D101F0C7
:104C5000BDF90E9B991BCA43D2170B91114000223C
:104C60001CABDB7E07910F940E9208921892139260
:104C700014929FE0A2460F9C129308CC3DAE337075
:104C800000231CAAAB46D3760F9439E60F9A08CAC4
:104C90000A93002B01DB00F015FC0A9B0F925B428C
:104CA0000A9304231C43069B1B78ADE52B231CAA07
:104CB000D376069B1B78A7E580231C43069B1B78B5
:104CC000A2E5069B581C1B782A2B01D101F01DFB85
:104CD0001A000021303A84460891092A01D901F0CE
:104CE000AFF900206146830018180B001B784000C4
:104CF00080181A00303A0131092AF4D90691089037
:104D000085E501231C43069B1B787DE51CABDB7E00
:104D1000002B00D0BBE520231CAAD376069B1B7872
:104D200072E5069B1B78682B01D100F080FD4022C4
:104D3000144369E5A2461293102453462343AB461D
:104D40001C00A30600D48FE307220F9B0733934375
:104D500019000CC90C920D9301230F9100221CA97C
:104D6000CA760898421C00D1C6E0802221009143F7
:104D70008A460C990D9A0D00154300D0BBE000281F
:104D800001D000F0EAFD002B62D101331A0022406D
:104D90000B9256AE234200D0C4E3089A0B991CAB89
:104DA000DB7E07928A4200DA079100220E92189267
:104DB00013921492002B00D1AEE5079A01320792AC
:104DC000AAE52200129310231A43AB46924653469B
:104DD0009B0600D43DE307230F9C07349C4322002D
:104DE00018CA0C930D940F925346CB4C23401C00D1
:104DF0000023B3E708231C43069B1B7804E522002D
:104E0000129310231A43AB46924653469B0600D496
:104E100035E307230F9C07349C4301339C46A4448D
:104E2000634622680F9363680C920D93002B00DA9F
:104E300031E3089B544601330FD080239C430C9AE6
:104E40000D9B1100194308D1089B002B0BD1A246E2
:104E5000002356AE08930B939FE70C9A0D9B002BF3
:104E600078D1092A76D863220C9B3DA930338B5424
:104E700001230B931CABE7269C46A24666448CE7B5
:104E80000F9BA24604CB02240C9200220D925246A4
:104E900030212243140023AA117048315170782226
:104EA0000F939E4BAB461D931292022356E72300AD
:104EB000AB469B0600D550E32300DB0601D500F08E
:104EC00053FD23005B0601D500F00BFE23009B057C
:104ED00001D400F049FD0F9C099A08CC069E1A7077
:104EE0000F9495E5069B1B786C2B01D100F097FC85
:104EF0001022144388E45446012BAED056AE022B48
:104F000000D166E10723A146BA469C460C9A0D9B48
:104F10005F07D5086146D8082F43030038001140C9
:104F200034003031013E3A0031701843F0D1250091
:104F30004C4657460C920D93E20743D5302941D099
:104F40003023013E023D337056AB5B1BCA462E0038
:104F50000B9322E780250023ED002540BA46A946A1
:104F600007941F000C9C0D9D56AE0BE00A220023F7
:104F700020002900FBF758FA002D01D100F080FF36
:104F800004000D000A22002320002900FBF74CFA40
:104F90004B46013E303232700137002BE6D01A9B6F
:104FA0001B789F42E2D1FF2FE0D0002D01D000F00E
:104FB00060FC092C01D900F05CFC159757460C9455
:104FC0000D95079C56AB9B1BA2460B93E5E6129BE7
:104FD000652B00DCCAE51698179900220023FBF721
:104FE000F5F9002800D15FE14D4B01343B6001230E
:104FF0007B602B9B2C94089301332B93072B01DDB3
:1050000000F090FC0837249B159A934200DB4FE296
:105010001C9B3B601B9B9C467B602B9B64440893C2
:1050200001332C942B93072B01DD00F003FC083790
:10503000159B5D1E002D00DCC8E43A4A2B9B91466F
:10504000102D01DC00F07CFC220010264C4605E00F
:105050000837103D102D01DC00F070FC10320133D8
:105060003C607E602C922B93072BF1DD4146584625
:105070002AAA03F011FF002800D088E02C9A2B9B6D
:105080002DAFE6E70A9B079A9D1A002D00DC85E408
:10509000244A2B9B9146102D23DD22004C46B1461D
:1050A0005E4603E0103D0837102D16DD102110324A
:1050B00001333C6079602C922B93072BF2DD414643
:1050C00030002AAA03F0E8FE002800D0E9E0103DF5
:1050D0002C9A2B9B2DAF102DE8DCB3464E46A146F3
:1050E00014004A46641901333A607D602C942B9376
:1050F000072B00DD4FE3089B0B9A08379D1A002D04
:1051000000DC51E4074A2B9B9146102D2BDD220039
:105110004C46B1465E460BE0FFFBFFFF40AC000093
:1051200070AC00007CAF0000103D0837102D16DD7C
:105130001021103201333C6079602C922B93072BA5
:10514000F2DD414630002AAA03F0A6FE002800D076
:10515000A7E0103D2C9A2B9B2DAF102DE8DCB34619
:105160004E46A14614004A46641901333A607D60F8
:105170002C942B93072B00DD5FE1083714E44146A4
:1051800058462AAA03F088FE002800D135E4C1461B
:105190000E99002902D0584602F0E6FB4B465B6EA2
:1051A000DB0713D44B469B899A050BD55B0601D5CB
:1051B00000F081FF099857B0F0BCBB46B246A94643
:1051C000A046F0BD4B46986D02F0DEFC4B469B8935
:1051D000ECE70F200C9A0D9BA446B9461D9F0100D9
:1051E0001140795C1C071509013E2C4331701909E7
:1051F0000B00210022001943F1D10C920D9356AB04
:105200009B1B4F46E2460B93C7E5414658462AAAE8
:1052100003F042FE0028BAD12C9C2DAFFFF7BAFB59
:10522000414658462AAA03F037FE0028AFD12C9CED
:105230002DAFFFF79DFB2B9BDC4D102E1DDD1022AB
:10524000914603E0103E0837102E16DD4A46103412
:1052500001333D607A602C942B93072BF2DD41469D
:1052600058462AAA03F018FE002800D08FE7103E07
:105270002C9C2B9B2DAF102EE8DCA419013360C7AA
:105280002C942B93072B01DCFFF7AAFB41465846D1
:105290002AAA03F001FE002800D078E72C9CFFF733
:1052A0009FFBB346C14673E72499002900DC0EE159
:1052B000149A159B15009A4200DD1D00002D0CDD8F
:1052C0002B9B6419089301333E607D602C942B93D3
:1052D000072B01DD00F0FAFD0837EB43DB171D401B
:1052E000149B5D1B002D00DD7BE3149B9C46534605
:1052F000B44465465B0501D500F00FFD249B159A6B
:10530000934203DB5246D20700D4E0E31C9A3A6092
:105310001B9A94467A602B9A6444089201322C942A
:105320002B92072A01DD00F0DEFD083715998C4627
:10533000CB1A6644721B1E00934200DD1600002E3D
:105340000CDD2B9AA419089201323D607E602C94EA
:105350002B92072A01DD00F051FE0837F543ED17C7
:1053600035405D1B002D01DCFFF730FB904A2B9B85
:105370009146102D00DCE3E2220010264C4604E0AA
:105380000837103D102D00DCD8E2103201333C60AC
:105390007E602C922B93072BF2DD414658462AAAB9
:1053A00003F07AFD002800D0F1E62C9A2B9B2DAF5C
:1053B000E7E701235246134201D0FFF7DDFB7B6094
:1053C0002B9B01345D1C2C9408932B95072D01DC3D
:1053D000FFF704FC414658462AAA03F05DFD002869
:1053E00000D0D4E62C9C2B9D2DAFFFF7F8FB159B2E
:1053F0005E1E002E01DCFFF7F2FB6D4B9946102E6E
:1054000005DCBFE20837103E102E00DCBAE24B4646
:105410003B601023103401357B602C942B95072DB5
:10542000F0DD414658462AAA03F036FD002800D098
:10543000ADE62C9C2B9D2DAFE5E7414658462AAAA8
:1054400003F02AFD002800D0A1E62C9C2DAFFFF729
:10545000ABFA5346DB0600D490E00F9C08CC0C93CB
:1054600000230F940D93BFE4E30600D47FE00F9B6D
:1054700004CB0C9200220F930D9201236EE453464D
:10548000DB0600D486E00F9C08CC0C93DB170D9351
:105490000F9400D4CDE40C990D9A00244B42944112
:1054A0000C930D942D231CAAD37654462C3B58E420
:1054B0005346DB0701D4FFF789FAA9E5A246AB46BC
:1054C0001293A2E4069B0F921B78FFF79DF9394BCC
:1054D00001343B6001237B602B9B2C9408930133A8
:1054E0002B93072B01DD00F0D1FC0837002900D0F9
:1054F00054E2524601231340159A134301D1FFF79A
:1055000065FA1C9B3B601B9B9C467B602B9B644409
:10551000089301332C942B93072B00DDA7E33A006B
:1055200008324EE2302162333DAAD1541CABE7264B
:105530009C46664431E41A9B002B01D1FFF7A7F982
:105540001A9B1B78002B01D1FFF7A1F98023DB0008
:105550001C43069B1B78FFF757F90F9C099A08CC50
:10556000069E1A60D2175A600F94FFF751FA63062D
:1055700000D466E20F9B04CB92B27AE753465B06F7
:1055800000D451E20F9C08CC9BB20C9300230F94E3
:105590000D9329E453465B0600D459E20F9C08CCD6
:1055A0001BB20C93DB170D930F943FE46CAF00001C
:1055B0007CAF000070AC00001698179902000B0039
:1055C000FCF75AFD002801D000F030FE129B612B41
:1055D00001D100F0ABFD412B00D197E2089B0133D4
:1055E00001D100F0C8FD2023129A9A430B92472A5A
:1055F00001D100F0ABFD802352465B001A431892A4
:105600001699179A002A01DA00F05AFD00230D00BE
:10561000914619930E930B9B462B01D100F07AFC17
:10562000452B01D100F067FD28AB049325AB039314
:1056300024AB0293089B2A0001930223584600934F
:105640004B4600F0E7FF0B9B0600472B01D000F014
:1056500075FE5346DB0701D500F01BFD524607924D
:10566000189A289B92469B1B15930B9B472B00D1A6
:105670001EE30B9B462B01D100F08EFC249B149360
:10568000149B5C1E0B9B2494412B01D100F0AEFDBA
:1056900048226B469B1800221B7828201CA9091859
:1056A0000B702B23002C03DA0124149BE41A2D2306
:1056B00029201CA909180B70092C01DC00F080FDC1
:1056C0001CAA3723944663441D00BA46B146200005
:1056D0000A21FAF765FE2E003031013D20002970C5
:1056E0000A21FAF777FD27000400632FEFDC4B4611
:1056F000B14601001CA81E0037224B4684463031BB
:10570000023BC9B2624457461970934201D300F07C
:105710000EFE2A22624400E019781CA8117084460B
:1057200037210133614401328B42F5D139234A4696
:1057300063449B1A2A226244944626AA63449B1A15
:105740001E93159B1E991A008C4662440B92012BE6
:1057500001DC00F0AFFD1B9A0B9B944663440B9356
:10576000E44B079A1A401300802252001A439246D3
:105770000B9AD343DB171A40002307921893139315
:105780001493199B002B00D0C0E200221CABDB7EDF
:105790000892FFF70FFB414658462AAA03F07CFB0C
:1057A000002800D0F3E42C9C2DAFFFF7F7F8A246B9
:1057B000AB461293D04B1D9353469B0671D50723DE
:1057C0000F9C07349C43220018CA0C930D940F922F
:1057D0005346DB070DD50C9A0D9B1100194308D0D9
:1057E000302223AB1A70129A5A70524602231A437F
:1057F00092465346BF4C23401C000223FFF7AEFAEB
:10580000AB461293FFF79DFAA246AB461293FFF701
:10581000DEFA1293B94BA246AB461D93CCE74C3B44
:10582000069A1C43013213780692FEF7EDFF993376
:10583000FF33F5E7414658462AAA03F02DFB00281E
:1058400000D0A4E42C9C2DAFFFF7F2FB089B07933C
:10585000062B00D938E1002300220E93079BA84EA7
:105860000B930F9400230892189213921492FFF74F
:1058700053F81F9B2099F61A1A00300003F008FA1B
:105880001A9920004B788C465A1E93419C446346DB
:105890000A221A9329000023FAF7C6FD0027FFF712
:1058A0006FFB5346DB0631D50F9C08CC0C930023CD
:1058B0000F940D938CE7414658462AAA03F0ECFA60
:1058C000002800D063E42C9C2B9D2DAFFFF761F9DD
:1058D000414658462AAA03F0DFFA002800D056E4D1
:1058E0002C9C2B9D2DAFFFF762F9414658462AAA02
:1058F00003F0D2FA002800D049E41CABDB7E2C9CDC
:105900002DAFFFF721F8B346B94641E453465B0695
:1059100000D4AAE00F9C08CC9BB20C9300230F94F8
:105920000D9355E7414658462AAA03F0B5FA0028D8
:1059300000D02CE42C9C2DAFFFF765FBA146140092
:105940004A46641901333A607D602C942B93072BEF
:1059500001DCFFF73AF8FFF74EF95446012B01D06E
:10596000FFF7CCFAFFF77FFA0F9C099A08CC1A6070
:10597000069E0F94FFF74CF8300003F05BF901002E
:10598000FFF769F94B46A41901353B607E602C9402
:105990002B95072D01DCFFF721F91BE51C9B3B60D4
:1059A0001B9B9C467B602B9B6444089301332C9487
:1059B0002B93072B00DD5AE13A000832002900DA68
:1059C00041E3159901338C466444166051602C9470
:1059D0002B93072B01DDFFF70EF908321700FEF7B6
:1059E000F5FF484A2B9B9146102D51DD22004C4675
:1059F000B1465E4603E00837103D102D44DD10210E
:105A0000103201333C6079602C922B93072BF2DD2E
:105A1000414630002AAA03F03FFA002800D040E4B3
:105A20002C9A2B9B2DAFE7E753460F9C9B0500D488
:105A300014E508CCDBB20C9300230F940D93FFF711
:105A4000D3F9A30500D412E50F9B04CBD2B210E525
:105A500053460F9C9B0500D416E508CC5BB20C9313
:105A6000DB170D930F94FFF7E1F953460F9C9B054D
:105A700000D41AE708CCDBB20C9300230F940D93EB
:105A8000A6E6214EFFF71DF8B3464E46A146140088
:105A90004A46641901333A607D602C942B93072B9E
:105AA00000DDF8E0083720E42D231CAAD376FFF7A9
:105AB00002F8414658462AAA03F0EEF9002801D11F
:105AC000FEF7B1FFFFF76AFB06230793C3E6159ABB
:105AD00094466644D31A761B9E4200DC3EE41E00C8
