:10000000008000209D000000990000009900000081
:1000100000000000000000000000000000000000E0
:100020000000000000000000000000009900000037
:10003000000000000000000099000000990000008E
:10004000A021032270B58020A12500240F4BC905F3
:10005000CA500F4E0F4A82B08003ED000194019BFD
:10006000934205D8019B01330193019B9342F9D937
:1000700088510094009B934205D8009B0133009364
:10008000009B9342F9D94851E8E7C0465407000065
:100090000C0500003FE20100FEE7C0460D480E4B94
:1000A00010B5984207D2013B1A1A920801320B4947
:1000B000920000F019F80A480A4B984207D2013B17
:1000C0001A1A920801320021920000F05FF8FFF73F
:1000D000B7FFFEE70000002000000020340200000F
:1000E0000000002000000020F0B5C64600B50F2A31
:1000F00041D903270D003E0005430C0003002E40AC
:100100002F423DD11500103D2D09A8462D01AC46CA
:10011000844427681D001F6067685F60A7689F6050
:10012000E7681034DF6010336545F2D145460F2390
:100130000C2401352D01491913404519144222D0D0
:100140008C59AC5104369C1B032CF9D8043B9B08FA
:1001500001339B00ED18C91803231A40561E002ACC
:1001600006D00023CC5C1A00EC5401339642F9D13E
:1001700080BCB846F0BD0500561E002AF1D1F7E755
:100180000500561EEDE71A00F6E7C046F0B505007B
:10019000830749D0541E002A45D003000326CAB263
:1001A00002E00135013C3ED301332A703342F8D1DD
:1001B000032C30D9FF220A40150215432A041543A7
:1001C0000F2C34D92700103F3F093E01B4461E00D2
:1001D0001A0010366644156055609560D56010327F
:1001E000B242F8D101373F01DB190F270C2227401B
:1001F00022403C00002A0ED03E1FB608B400A446A0
:100200001A001C1D644420C2A242FCD10324013602
:10021000B6009B193C40002C05D0C9B21C191970BE
:1002200001339C42FBD1F0BD03001400C0E727005E
:04023000E2E7C046FB
:00000001FF
