:10000000008000208D0B0000890B0000890B000090
:1000100000000000000000000000000000000000E0
:10002000000000000000000000000000890B00003C
:100030000000000000000000890B0000890B000098
:10004000890B000065060000890B0000890B000089
:10005000890B000000000000890B0000890B0000E4
:10006000890B0000890B0000C50C0000890B000003
:10007000890B0000890B0000890B0000890B000030
:10008000890B0000890B0000890B0000890B000020
:10009000890B0000890B0000890B0000890B000010
:1000A000890B0000890B0000000000000000000028
:1000B0000000000000000000000000000000000040
:1000C000002941D010B404004C40A4460123002272
:1000D000002900D54942002800D5404288422CD34F
:1000E00001242407A14204D2814202D209011B014A
:1000F000F8E7E400A14204D2814202D249005B0049
:10010000F8E7884201D3401A1A434C08A04202D3B0
:10011000001B5C0822438C08A04202D3001B9C08F1
:100120002243CC08A04202D3001BDC082243002853
:1001300003D01B0901D00909E3E710006446002C35
:1001400000D5404210BC704701B5002000F00CF80B
:1001500002BDC0460029F7D003B5FFF7B3FF0EBCC0
:100160004243891A1847C0467047C046002934D018
:100170000123002210B488422CD301242407A14279
:1001800004D2814202D209011B01F8E7E400A14236
:1001900004D2814202D249005B00F8E7884201D3D1
:1001A000401A1A434C08A04202D3001B5C082243A9
:1001B0008C08A04202D3001B9C082243CC08A0421A
:1001C00002D3001BDC082243002803D01B0901D006
:1001D0000909E3E7100010BC704701B50020FFF7E4
:1001E000C3FF02BD0029F8D003B5FFF7C1FF0EBC65
:1001F0004243891A1847C0468446100062468C461E
:100200001900634600E0C0461FB508F037FB002820
:1002100001D40021C8421FBD10B508F089FA404240
:10022000013010BD10B508F029FB002801DB0020CB
:1002300010BD012010BDC04610B508F01FFB0028FE
:1002400001DD002010BD012010BDC04610B508F032
:10025000B1FA002801DC002010BD012010BDC0460D
:1002600010B508F0A7FA002801DA002010BD01201F
:1002700010BDC046002B11D1002A0FD1002900D19A
:10028000002802D00021C943080007B4024802A197
:100290004018029003BDC046D1FEFFFF03B468467C
:1002A00001B5029807F080FC019B9E4602B00CBC91
:1002B0007047C04603B47146490840004900095AD6
:1002C00049008E4403BC7047D0400B00D1409C468F
:1002D000203AD34018435242634693401843704734
:1002E0009140030090409C46203A9340194352426B
:1002F0006346D340194370471C2101231B049842D5
:1003000001D3000C10391B0A984201D3000A0839A6
:100310001B09984201D30009043902A2105C40185D
:100320007047C04604030202010101010000000001
:100330000000000010B5002903D1FFF7DDFF2030D9
:1003400002E00800FFF7D8FF10BDC046014B18605F
:100350007047C046D0060020F8B54746CE46060096
:1003600080B590460F00994603290DD90024355DCC
:1003700033196A1EA11C01355878D2B24346711850
:100380006419C847A742F2DCC0BCB946B046F8BD04
:10039000F0B5C6460F2100B5414B1B681A781140D5
:1003A00003292BD00C2414422BD1002951D002292F
:1003B0004BD19A1C1E0090465F780836063FFFB26C
:1003C000C1B23B003200404600F080FA032F15D93D
:1003D000002403E001356419A7420FDD33195B786F
:1003E000355D092BF6D16A1EA11C01354046D2B2FB
:1003F0007118641900F0FEF9A742EFDC80BCB84622
:10040000F0BD042921D19A1C1E0090465F78083661
:10041000063FFFB2C1B23B003200404600F056FA40
:10042000032FEBD9002403E001356419A742E5DD71
:1004300033195B78355D092BF6D16A1EA11C404645
:10044000D2B2711800F0D6F9EEE7164800F084FC3D
:10045000D4E79A1C1E0090465F780836063FFFB22C
:10046000C1B23B003200404600F030FA0024032FB6
:10047000C4D933195B78355D092B08D0013564196F
:10048000BC42BBDA33195B78355D092BF6D16A1EA5
:10049000A11C4046D2B2711800F0ACF9EEE7C0469C
:1004A000D0060020649400008023AC225B059A589B
:1004B00010B5120716D4EC2223499C58234A5450F5
:1004C000F0215C58E521C9005450F4215C582049C2
:1004D0005450F8215C58E621C9005450FC21595869
:1004E0001C4BD1500022194C1B4BE25004330332F9
:1004F000E2500422194BFF32E250194B194AE250E4
:10050000194A043BE2508422184B5200E250184A28
:100510000433E25040231843164BE050E15816488C
:1005200000F01AFCC021154889004258144B1A40AB
:100530008023DB0113434350124A134BE2508E22B7
:10054000124BE25010BDC0462407000000100040CE
:100550002C070000340700000C05000034050000E3
:100560003C050000555555005B06000014050000D1
:10057000FF000302540500009094000000E100E039
:10058000FF00FFFF11D6BE891C05000024050000F6
:100590000100C2220120294B9200404210B5985020
:1005A00000221230FF301A5004381A508022FB38D3
:1005B000920098500532FF3209389850A622073829
:1005C000D200985027292DD80B00253BDBB2022BF7
:1005D0002CD81B4AD45C96231B01E218194800F062
:1005E000BBFBA122154BD2009C501749174AC020D3
:1005F0005A500221164A4000115011600022033166
:10060000FF315A5004315A5008315A5004395A5067
:10061000104811490A5004300A5010480A5001325B
:100620005A6010BD042400210D4AD7E78C1C844079
:100630009623E4B21B01E218D0E7C0460010004048
:1006400000970000B494000004050000EC100020A6
:1006500000E100E00C0A0000D4060020140A0000AB
:100660006409000001228021F8B53F4B49009A61DE
:100670005858002804D0C12080001858024226D1C2
:100680008623394C5B00E258002A04D0C122920034
:10069000A25812071ED48222334B520099580029C7
:1006A00004D0C1218900595889070DD488222E4BC6
:1006B00052009958002906D0C12189005958C9060D
:1006C00001D500219950F8BD00219950EEE7002294
:1006D0005A50D5E70022E250244B186800F06AF91E
:1006E000234B186800F066F98023DB00E358002BE9
:1006F00035D0204B186800F05DF91F481F4BC358D8
:10070000092B2CD8A9231E4E1E4FDB007D78E25802
:10071000815952B20B025B18C3185A7082590235C4
:100720001302EDB29B18C554002D0BD00022845942
:10073000B95C23021B19C3189B18C9B20132997006
:10074000AA42F4DB0E4BC2580132C250C258092AE9
:1007500001D90022C250094A835801338350012233
:10076000014B9A6097E7C046001000400C970000CC
:100770000897000004970000D4060020140A000027
:100780000C0A0000EC10002010B5040000F0EEFB95
:100790000200FF2803D90022044B1A7010BD21006B
:1007A0000132024800F08CFBF8E7C046EC11002053
:1007B000F8B50D4B06001F78002F0CD000240B4D10
:1007C00006223100280000F0D9FA002805D00134B3
:1007D0000635BC42F4DB0020F8BD2306FBD46420C0
:1007E0006043034BC018F7E7E82F0020702F00206C
:1007F000A0270020F8B5DE464E46454657462D4C0C
:10080000E0B5060020008846914600F0AFFB414667
:100810000200200000F020FB041E3AD1264B9B462C
:100820001F78264B9A461D00002F0CD0062231005F
:10083000280000F0A3FA002831D001340635BC426C
:10084000F4DB132F30D87B00DB195B005344180016
:100850000622310000F034FB64227A431849194B18
:1008600008889A18108089787DB291705A460137AD
:1008700017704A464C46642A00D9642464225543C2
:10088000E4B25D1922004146280000F019FB002364
:100890002B55F0BCBB46B246A946A046F8BD65B292
:1008A0002406CED4074BE4E71421074800F054FA9D
:1008B000EFE7C046EC110020E82F0020702F002049
:1008C000FC940000A0270020D4940000F8B5DE4678
:1008D00057464E464546E0B5984606008B4691463B
:1008E00000F0BCF9174B82461F78002F0CD0002473
:1008F000154D06223100280000F040FA002809D0EA
:1009000001340635BC42F4DBF0BCBB46B246A94616
:10091000A046F8BD2306F7D45A460C4B0C491A558D
:10092000A30058580B4A9850524620025A500A4B7E
:10093000001B4246C018494600F0C2FA4246074B27
:100940001A55E1E7E82F0020702F00208C270020A7
:100950003C270020EC26002000130020EC12002091
:10096000F8B54746CE4680B50E4F06003B78002BC3
:1009700013D00D4B002499460C4B0D4D98464B4619
:100980002002001B195D2A0033004044FFF7E4FCFD
:100990003B7801340635A342F1DCC0BCB946B04611
:1009A000F8BDC046E82F0020EC1200200013002004
:1009B000702F002001228240A02110B51400A12038
:1009C000044BC905CB58C0009C431340024A0C504D
:1009D0008B5010BD040500000C050000A02303226D
:1009E0000B49DB055A5004315A500A495A50043118
:1009F0005A50A1228021D200890399508021C90335
:100A000099508021090499508021490499507047D8
:100A1000540700005C070000F0B51C00277885B083
:100A2000DB7822790D0061790297677806000197DB
:100A3000A7781448009700F08FF92000FFF7B8FE60
:100A4000114B0100180000F087F9162E01D005B0F7
:100A5000F0BD2B7A687A1B0218430A2100B2FFF717
:100A60002FFB01B2094800F077F9A97A084800F095
:100A700073F92B7BE97A1B021943064800F06CF9E5
:100A8000E5E7C04600950000289500003895000075
:100A90004C9500005C95000080228021F8B5002371
:100AA000DE4657464E464546D2054900E0B553500E
:100AB000013313605358002BFCD000F0D5F8FFF73A
:100AC0008DFF00F00DF9284800F046F92520FFF7CA
:100AD000EBFC2520FFF75CFD00F0C0F80700234881
:100AE000FFF752FE224B234C9A46234B234E994646
:100AF000234B9846A1252D014346E358002B10D1E6
:100B000000F0ACF8FA22C01B92009042F4D900F039
:100B1000A5F80700504600F01FF94846FFF720FFF0
:100B2000E8E76259615910020B025B18E3185B7821
:100B300080185BB29B4602302018FFF707FC58462E
:100B4000FFF726FC6359013363516359092B01D91F
:100B50000023635102228023F25043464146E3586A
:100B6000013B63503260CBE774950000B495000000
:100B7000BC950000D4060020190A000000E100E046
:100B8000140A0000FEE7C046FEE7C0460D480E4BC3
:100B900010B5984207D2013B1A1A920801320B494C
:100BA000920000F08DF90A480A4B984207D2013BA7
:100BB0001A1A920801320021920000F003F9FFF79F
:100BC0006BFFFEE700000020D0060020C09C000064
:100BD000D00600207039002070B5161E07DD0C000D
:100BE0008D182078013400F0A7F8AC42F9D130001C
:100BF00070BDC04606490B881A188020C00082428A
:100C000003DA04480A801818704701204042FBE7C5
:100C1000EC370020EC2F002009220120014B40423C
:100C20001A607047F437002000207047002070479A
:100C300080239B0100204B607047C0460120704715
:100C400010B5FFF79FFFFEE716220120014B40423F
:100C50001A607047F437002001207047014B186874
:100C60007047C046F0370020A2220421124BD20068
:100C700030B599500021083A9950FA21383289004C
:100C80009950802201248021C22592009C50053277
:100C9000FF3249029950094AAD00505908490840AD
:100CA0008021090401435151C02080214000C90026
:100CB000115011601C6030BD00A0004000E100E058
:100CC000FFFF00FFA0230021034A5B00D150034A2D
:100CD000136801331360704700A00040F037002014
:100CE000A023A1228021DB05D200890099500B4A64
:100CF000FE39FF3999500A4B0A4A0B499950002195
:100D00000A4A99500A4A093199500C3A05399950C2
:100D100001229A60074A1C3199507047240700004D
:100D2000002000402405000000E0D7016C05000011
:100D30000C0500001C0500008E21054A490053588F
:100D4000002BFCD000235350024BD0507047C046BC
:100D5000002000401C0500000FB400B5064983B018
:100D600004AB086804CB8168019300F075FD03B003
:100D700008BC04B01847C0460000002030B5032A64
:100D80000CD90B0003439B0719D104680B689C42E4
:100D900015D1043A04300431032AF6D8551E002A2E
:100DA0000BD0002303E05A1C9D4206D01300C25C06
:100DB000CC5CA242F7D0101B00E0002030BD551ED5
:100DC000EFE7C046F0B5830741D0050004000327D4
:100DD000861804E0297001353B4204D01C00631CD6
:100DE000B442F7D1F0BD013A8218121B032A25D96B
:100DF000FF240C4025022D192C042D190F2A28D967
:100E00001C0013002600103B1B091B0110369B1908
:100E100025606560A560E5601034A342F8D10F2419
:100E20000C26144016402200002E07D0A208920083
:100E3000D21820C39342FCD103222240002AD1D0F1
:100E4000C9B29A18197001339A42FBD1CAE703005C
:100E5000CCE71400EAE7C04630B5002A27D00300EB
:100E60000B439B0713D1032A11D9134D0BE0043A0E
:100E7000002A1CD0114C1C199C432C4217D1043061
:100E80000431032A03D903680C68A342EFD00D781C
:100E9000047801230139AC4207D00AE0002C06D0C7
:100EA000C45C0133CD5CAC4203D19A42F6D1002040
:100EB00030BD601BFCE7C04680808080FFFEFEFEE8
:100EC000F0B5CE46474680B50F2A0ED80500561E0F
:100ED000002A06D00023CC5C1A00EC540133964261
:100EE000F9D1C0BCB946B046F0BD03000B438846FB
:100EF0009B0734D110261700B1460C000300103FA9
:100F00003F093F01C519A94466685E60A6689E60F6
:100F1000E668DE60266810341E601E001033AE42A4
:100F2000F2D1CF1939000F230C2610318C46134013
:100F3000164217D04446043B9B089B00FF18143709
:100F4000061B0C688D1904312C60B942F9D1614639
:100F5000043359184B441D0003231A40B7E705001A
:100F6000561EB7E74D461A00B1E7C04610B58307D5
:100F70000AD00300032102E001330B4205D01A78A6
:100F8000002AF9D1181A10BD030019680C4A0D4C3B
:100F90008A188A4322420FD15968094A04338A18B1
:100FA0008A43224208D15968054A04338A188A4381
:100FB0002242F1D000E001331A78002AFBD1E1E7A8
:100FC000FFFEFEFE80808080F0B5C646060000B5BC
:100FD00008200D0003F090FB0400300000F02CFC12
:100FE000234B210098469B685F6803239F4338008A
:100FF0001138401B0019FFF7B9F8451E6543AC4294
:1010000008DC0021300003F049FB43469B68DB19F4
:10101000984206D0300000F017FC002080BCB84693
:10102000F0BD3000694203F039FB01300ED00122DF
:1010300043467F1B9B6817430E4A5F60136830006E
:101040005B1B136000F000FC0120E7E7002130008B
:1010500003F024FB43469A68831A0F2BDADD064C13
:1010600004492468001B086001210B435360D1E749
:1010700050010020F837002048010020F0B5D64686
:101080004F46464605000C00C0B5002948D000F088
:10109000D3FB2100012708394B6803209C46BB4342
:1010A000CE18726882436046384080466A4891464E
:1010B0008468B44200D17CE07260B41864683C403B
:1010C000A2464446002C30D10C68A446091B8C680B
:1010D0006344A4460824A0468044C4455CD0CC6840
:1010E000A04664464246E26094605246002A1FD001
:1010F0001F434F60336080229200934230D2DA085F
:101100005C090123A340446823434360D3001B18B8
:101110009A68CB608A609960D160280000F094FBE7
:10112000E0BCBA46B146A846F0BD5246002A0FD1EF
:1011300001224B44CF18BC46B468484F1A43BC4206
:101140005BD0F668E660B4604A6062461360D2E73E
:1011500062463A434A608022336092009342CED383
:101160005C0A042C3FD89C09260039343836E40048
:1011700004192268083C0327944203D14EE0926888
:10118000944203D05068B8439842F8D8D468CC60F1
:101190008A60A160D160C0E75246002A35D14B4435
:1011A0001A00B068F3681743C36098604F608A50B4
:1011B000B3E74B441A004346002B06D10B68C91A0B
:1011C0008C68D218CB68E3609C60012313434B60AA
:1011D000234B81601B6893429FD8224B28001968DB
:1011E000FFF7F2FE99E7142C13D9542C1DD81C0BD1
:1011F00026006F346E36E400BAE7E160A1604A6011
:101200006246CC608C60136087E71F434F60336099
:1012100083E726005C345B36E400A9E70123B610BF
:10122000B340466833434360B1E7AA225200944278
:1012300005D8DC0B260078347736E40098E70A4AB4
:10124000944205D89C0C26007D347C36E4008FE760
:10125000FE247E26A4008BE75001002058010020C8
:101260004C0100202838002054050000F0B54E46FF
:101270004546DE465746E0B50D000B35060085B005
:10128000162D21D8102900D9D4E000F0D5FA102568
:1012900018230221CA4FFB181A005C68083A9442CE
:1012A00000D186E103226368A1689343E268CA60C3
:1012B00091600121E3185A6830000A435A6000F037
:1012C000C3FA20000830B8E007239D4300D5B1E001
:1012D000A94200D9AEE000F0AFFAFC235B009D42CA
:1012E00000D2E0E1690A00D1AEE0042900D9A1E111
:1012F00038239846A90988443931CB000822524244
:101300009446AF4FFB189C446346DC68A44514D058
:10131000032399460B0061469C4607E0E068002ADB
:1013200000DB40E1814200D141E104004A466368AC
:1013300093435A1B0F2AF1DD41463A003C690832BB
:10134000944200D11EE1032063688343581B0F2899
:1013500000DDACE13A617A610028AADA7A68904649
:1013600080229200934200D336E1DA085809012323
:101370008340404618438046D300DB199A68786062
:10138000E360A2609C60D46001208B1098404045CF
:1013900062D8434603420AD103239943434640009F
:1013A0000431034203D1400004310342FBD0032344
:1013B000B3469C460E00B8460190F0004044010040
:1013C000B246CB680BE064465A681F00A243DB6854
:1013D000541B0F2C00DD39E1002C00DB53E1994256
:1013E000F1D101239946CA44534608319B07E8D1FD
:1013F000032205E003680838013E834200D013E26F
:101400003242F7D14346019A5B68934342465360A8
:10141000019A520001929A421CD8002A06D119E082
:1014200004229146019ACA44520001921342F7D015
:101430005646C2E70C233360002005B0F0BCBB4623
:10144000B246A946A046F0BD80233F2240219046E7
:101450009B0053E75E4647460322BC68636893439C
:101460009846AB4203D35B1B0F2B00DD8DE02300BE
:1014700043440293534B08201B6810335B190193BC
:1014800003F03AF9504903900B688A46013306D0BD
:101490008446019B4242013B634413400193300068
:1014A000019903F0FBF803008146013300D11CE1F0
:1014B000029B834200D916E1444B02989B461A686E
:1014C000019B59469C4662440A600399013948458C
:1014D00000D157E153461B68013300D15EE14B4612
:1014E00002981B1A9B185A46136007234A4648461F
:1014F0001A400292184200D115E103980133844644
:101500009B1A019A99444A44019263440A409B1AE7
:10151000194030008A4603F0C1F8431C00D158E15D
:101520004B46C01A0300534401935B461A680120DE
:1015300052441A604B464946BB60019B03434B60D3
:10154000BC4213D043460F2B00D82BE107210C3BA4
:101550008B4361680140052019436160E1184860D0
:1015600088600F2B00D93FE14B465B68184908683B
:10157000904200D20A6017490868904200D20A607F
:101580004C46B4E07B689846FEE6012229001343EE
:101590001143651961603000BD606B6000F054F963
:1015A0002000083049E7A268D060826081E6614689
:1015B000C3E6DC680231A34200D1BEE672E6C04653
:1015C000500100202838002048010020F837002072
:1015D00024380020203800205A0A042A7CD9142AF2
:1015E00000D9B0E010005B3082465C32D2000820A7
:1015F00040428446BA189444624692680B30814651
:10160000944500D186E00800A2466146844602E087
:101610009268914204D04C465068A0439842F7D853
:10162000D368614654469C466346A260E3609C6072
:10163000D460A9E6142967D9542900D98CE06E2317
:101640009846290B88446F31CB0057E6BA460120F3
:1016500051468446491905435046456085684746CA
:101660006046EB605E469D60534639617961204378
:1016700008374860CF6030008F609C5000F0E4F87D
:1016800050460830D9E6BA4601205E4652445168B9
:1016900001435160BA683000D3609A6000F0D4F81A
:1016A00038000830C9E62B00E9080833F2E5611973
:1016B000884601218C460D43414665603961796158
:1016C000CA608A60624602434A60E050300000F01F
:1016D000BBF820000830B0E69A09100039323830E3
:1016E0008246D20083E7BC4241D0BC6863680322D3
:1016F00093431A005B1BAA4202D30F2B00DD44E781
:10170000300000F0A1F897E65B23984688445C31EE
:10171000CB00F3E55346981001238340404618431D
:101720008046786080E7019B039A4B440B40D31AB4
:10173000194030008A4602F0B1FF431C00D0EFE6AA
:1017400000239A46F1E6542A2ED81A0B10006F3265
:101750006E308246D2004AE7AA235B0099422ED817
:10176000DD3B9846E90B88447831CB00C6E5304B29
:101770009B461A68019B9C465B4662441A60039B29
:10178000591EA7E64846084200D0A3E6B96843447C
:10179000894601210B4349464B60E7E653464A46DA
:1017A0001A60A2E64860ABE7AA204000824226D831
:1017B000DA0B1000783277308246D20017E71D4BE3
:1017C000994226D87C239846A90C88447D31CB00C9
:1017D00094E5019A029B94464A46083B63449B1A4F
:1017E000019300239A46A0E6210030000831FFF75C
:1017F00045FC5B461A68BB6899465B68B6E60D48CF
:1018000082420CD89A0C10007D327C308246D20085
:10181000EDE6FE237E227F2190469B006EE5FE22B0
:101820007E2092008246E2E643465B68F0E5C046D1
:10183000F83700205405000010B5024802F058FFA8
:1018400010BDC0466839002010B5024802F052FFB2
:1018500010BDC04668390020F0B5DE464546574603
:101860004E46E0B5DBB0884693461C001093050059
:10187000079002F0D5FE036818001C93FFF776FB73
:101880001B90002D04D06B6B002B01D101F014FADA
:10189000434601255A6E0C215B5E154201D100F0D2
:1018A0003DFE990401D500F0A7FF802189010B437B
:1018B00041468B81D1491BB20A4041464A661A070C
:1018C00001D400F003FE42461269002A01D100F063
:1018D000FDFD1A221A400A2A01D100F008FE31ABA0
:1018E0002E9300230024119330932F9300231893F9
:1018F000199400231F931D93219320930B93C04BA6
:101900005D461393BF4B2EAF1E93434608932B782F
:1019100031AE002B00D1B3E02C0005E06378013438
:10192000002B01D100F0A3FC252BF7D1631B9846B7
:10193000AC4201D000F0A1FC2378002B00D19FE045
:10194000631C0693002320AAD376012252420A92F6
:101950000022637814000E92069A013206921A0051
:10196000203A5A2A03D8139992008A5897469946E2
:10197000A346002B00D183E041AD2B70002320AAA9
:10198000D3760F9301330C9300230A931A93159384
:1019900014930133099384235A461A4012925A46EB
:1019A000BC68134200D169E120ABDB7E002B23D061
:1019B000002290467B6820A91B228C46624432603C
:1019C0000122013401337260BC607B60072B01DDB2
:1019D00000F0C6FD08364346002B0DD07B6827AAD1
:1019E00032600222023401337260BC607B60072BDC
:1019F00001DD00F0A9FD0836129B802B01D100F01B
:101A00004EFC0A9B0C9A9B1A9846002B00DD48E17D
:101A10005B46DB0500D582E10C9B35609C4673601C
:101A20007B6864440133BC607B60072B00DD9BE076
:101A300008365B465B0706D50E9B099A9D1A002D5A
:101A400001DD00F099FD0E9B099A934200DA130024
:101A50000B9A94469C4463460B93002C01D000F0F3
:101A600060FC00237B600F9B002B03D00F9907982D
:101A7000FFF704FB069D31AE2B78002B00D04BE71F
:101A8000089B9846BB68002B01D001F000FA0023A8
:101A90007B6000F057FC303B00201900069A830061
:101AA0001B185B00C8181378013219003039092956
:101AB000F5D90E90069252E707229946109BA3464D
:101AC000073393431A0018CA190010922200189184
:101AD000199201222293199B52425B005B082393C7
:101AE00022982399484B07F025FC002801D000F0EC
:101AF000DFFE229823990122434B5242FEF79CFBC2
:101B0000002801D000F0D4FE1898199980235A4675
:101B10009A43934600230022FEF784FB002801D05D
:101B200001F0DAFB4A4620ABDB7E472A01DC01F0FC
:101B3000C1F9364D002B01D001F092FF0F93033312
:101B40000C9300230A931A93159314930333099368
:101B500021E71400129A6419013332607560BC6089
:101B60007B60072B00DC63E73A000899079802F0D6
:101B70009BF8002800D0DDE3BC6831AE59E7069B36
:101B80001B78E9E620231C43069B1B78E4E6994674
:101B90002300A3469B0601D400F00BFF0723109AF5
:101BA00007329A4301339C469444634610930CCA0F
:101BB00016921793002B00DA57E20A99002900DAEF
:101BC00023E180235A469A439346169A179B1000A6
:101BD000184300D019E1002901D101F063F9302345
:101BE0001EE19946109B41AD04CB20A92A7000222A
:101BF0001093A3460023CA76C3E6C046FFDFFFFF6B
:101C00001097000014990000FFFFEF7FC8950000B7
:101C100099460023A346109C20AA20CCD3760A9B89
:101C2000002D01D100F0A3FF002B01DA01F097F89D
:101C30001A000021280002F06DFD20AAD27E0F902C
:101C4000002801D101F014FD411BCB43DB170C919F
:101C500019400991002A01D00131099100235A4607
:101C60000F930A931A931593149384231A40129294
:101C70005A461094BC68134200D095E60E9B099A10
:101C80009B1A9846002B00DDD6E320ABDB7E002BB1
:101C900000D08DE60A9B0C9A9B1A9846002B00DC1C
:101CA000B6E642467B68102A01DC01F0ECF810220F
:101CB0001E999246129122004446A8460D0003E068
:101CC000103C0836102C16DD5146103201333560B9
:101CD0007160BA607B60072BF2DD3A0008990798C3
:101CE00001F0E2FF002800D024E3103CBA687B68D2
:101CF00031AE102CE8DC4546A0461400129A44444C
:101D00003260424601337260BC607B60072B01DDAC
:101D100000F066FD5B460836DB0500D47CE64B46EA
:101D2000652B00DC24E31898199900220023FEF7A4
:101D300073FA002801D100F05DFCDE4B0134336002
:101D4000012373607B68BC6001337B60072B01DD7E
:101D500000F0C2FF0836289B119A934201DB00F085
:101D600051FD1C9B33601B9B9C4673607B686444E5
:101D70000133BC607B60072B01DD00F0E0FE08361C
:101D8000119B5D1E002D00DC53E67B68102D01DCED
:101D900001F0BAFE1022C8499046129122000C00B0
:101DA00004E00836103D102D00DCD2E6414610322A
:101DB000013334607160BA607B60072BF1DD3A005B
:101DC0000899079801F070FF002800D0B2E2BA68C5
:101DD0007B6831AEE6E799461020230020439B063E
:101DE00001D400F0C2FD0722109B073393431A0071
:101DF00018CA169317940023109220AAD3760A9B30
:101E0000002B01DB00F005FD8346169B179C002C80
:101E100000D041E1092B00D93EE1169B3033DBB203
:101E20008420632220A909188B540A9B0993002B54
:101E300001DC0123099301220C9220AAE725944694
:101E400020ABDB7E6544002B02D0099B0133099354
:101E500000230F931A93159314939CE5109A08CAC4
:101E60000E93002B01DB00F0E8FC0E9B10925B420E
:101E70000E9304231C43069B1B786DE599461020A6
:101E8000230020439B0601D400F056FD0723109A3F
:101E900007329A4301339C46944463461093136877
:101EA0005268002120ACE1760A99002921DB8349A0
:101EB00001408B46190011431ED10A9900291BD1FC
:101EC0000123190001400991034201D100F0D5FE20
:101ED0008424302220A862330019C25400231A93AC
:101EE000159314930F9320ABE7259C460C91654402
:101EF00051E573490840834607218C465AAD614637
:101F000050071940DB08034318002C003031013D15
:101F1000D20829701043F2D101235A461A40149274
:101F20005A46134201D000F020FC0A9A5AAB5B1BC0
:101F30000C9309929A4201DA00F0B3FC00231A9341
:101F400015930F9327E508231C43069B1B7803E595
:101F5000069B1B786C2B01D100F007FE1022144366
:101F6000FAE4069B1B78682B01D100F0F5FD4022B6
:101F70001443F1E40022109952480A9DA34620AC74
:101F800008C9A083E276002D01DA00F02BFD802045
:101F90005C4684437E380443A346002B01D000F006
:101FA000B2FE002D01D100F088FF842420A8633305
:101FB00030320019C25420AB9C460023149378336E
:101FC000994600230995E7251A9315930F9301333A
:101FD0001091654400210C9300F044FD99462300C4
:101FE0009B0601D500F0B8FC2200109908C9D20662
:101FF00001D501F0EEFB2200520601D400F030FFC3
:10200000002220009BB210914BE7220010990B1D7B
:10201000920601D500F098FC2200D20601D500F00E
:1020200068FE2200520601D500F067FF22009205EB
:1020300001D400F05EFE109A0B9912681093117093
:10204000069D19E599461022230022439B0601D5DF
:1020500000F088FC109B191D109B93461B68109183
:102060001693DB17179300D4A7E51699179A002447
:102070004B429441169317942D2320AAD3760A9BA2
:10208000002B00DAC1E680235A469A439346169BFA
:10209000179C002C00D1BDE680235A46DB001A4075
:1020A000002311935AABB2460F979846169E179F7E
:1020B0000C9218E004960000149900007FFBFFFFCB
:1020C000FFFBFFFF30780000099639000A22002349
:1020D0000998FEF7CFF83C00A84606000F00002C38
:1020E00001D101F0E8F90A22002330003900FEF79F
:1020F000C1F84546119B013D013311930C9B3032D1
:102100002A70002BE0D01D9B119A1B789342DBD1E3
:10211000FF2AD9D0002F01D001F05AF8092E01D999
:1021200001F056F80A9A5AAB5B1B169617970C9358
:1021300056460F9F09929A4200DA099320ABDB7E44
:1021400081E699462300A3469B0601D500F007FCD3
:10215000102320001099184004C9234201D001F037
:102160003BFB40235D461C402B4201D100F05AFE50
:1021700093B216930023179320ABD8760A9B002BBB
:1021800008DB80235A469A43169B9346002B01D1C5
:1021900000F001FC109138E6079B1800994602F008
:1021A0003FFA436818002093FEF7E0FE8046219036
:1021B000484602F035FA41468268069B1D921B781C
:1021C000002901D1FFF7C8FB002A01D1FFF7C4FBAA
:1021D0001278002A01D1FFF7BFFB8022D2001443FE
:1021E000FFF7BAFB01231C43069B1B78FFF7B4FBE8
:1021F00020AA069BD27E1B78002A01D0FFF7ACFBF9
:10220000203220A9CA76FFF7A7FB80231C43069B38
:102210001B78FFF7A1FB069B5A1C1B7894462A2BC0
:1022200001D101F0BFFC190030391000002209294A
:1022300001D901F087FA93009B185B005A180378C4
:102240000130190030390929F5D906900A92002A7F
:1022500001DBFFF784FB012252420A92FFF77FFB6A
:102260002B2320AAD376069B1B78FFF775FB631BF5
:102270009846AC4201D1FFF703FC43467360BB684C
:1022800035604344BB607B6801337B60072B00DD16
:10229000C5E008360B9B43440B93FFF74DFB0E9BA9
:1022A000099A9B1A9846002B01DCFFF7AAFB4246CD
:1022B0007B68102A01DC01F0AFFA1022CB4992466C
:1022C000129122004446A8460D0003E0103C083657
:1022D000102C15DD51461032013335607160BA6043
:1022E0007B60072BF2DD3A000899079801F0DCFCCF
:1022F00000281FD1103CBA687B6831AE102CE9DC95
:102300004546A0461400129A4444326042460133C6
:102310007260BC607B60072B00DDC9E30836FFF705
:1023200070FB3A000899079801F0BEFC002801D123
:10233000FFF797FB089B0F999846002902D0079852
:10234000FEF79CFE43460C229B5E4246526ED2072D
:1023500003D49A0501D400F087FC5B0600D5EFE0BA
:102360000B985BB0F0BCBB46B246A946A046F0BD98
:102370007B6801340133984608239946119BB14488
:102380003560012B00DCD6E1012373604346BC605D
:102390007B60072B01DD00F02FFC4B461C9A1A6076
:1023A0004A461B9B9C465360012364449C46E04480
:1023B0004346BC607B60072B01DD00F02DFC082349
:1023C0009C46E144119B0022189819995E1E002337
:1023D000FDF722FF002800D0D9E101239C464B469F
:1023E000E044013560C34346A419BC607B60072B01
:1023F00000DDACE108239C46E1444A462AAB136069
:102400001F9B9C465360434664440133BC607B6021
:10241000072B01DDFFF7A8FB4E46FFF709FB3A004B
:102420000899079801F040FC002801D001F0A2FAB9
:1024300031AE2FE7022312934146BA687B68102918
:1024400001DC01F024F96A4928008A46454631003A
:1024500010245646804603E0103D0831102D15DD4E
:10246000103201330E604C60BA607B60072BF3DDE5
:102470003A000899079801F017FC002800D059E7A6
:10248000103DBA687B6831A9102DE9DC4046B246A0
:10249000A8460E00050051463160414642440133D2
:1024A00014007160BA607B60072B00DDEEE320AAA8
:1024B000D27E0836002A00D0C4E1129A002A01D147
:1024C000FFF79FFA00221292FFF789FA4146079818
:1024D00001F096FF4346002801D001F00EFB0C22CC
:1024E0009B5E1A221A400A2A01D0FFF7F8F94246E9
:1024F0000E21525E002A01DAFFF7F1F94246526ED0
:10250000D20703D49B0501D400F05CFE23005A4699
:102510004146079801F082FB0B9021E7990500D412
:10252000F3E0990401D4FFF7C0F95213154201D129
:10253000FFF7C5F943469B899B0501D401F00CFBCD
:1025400001235B420B930BE73A000899079801F0CF
:10255000ABFB002800D0EDE6BC6831AEFFF74CFACB
:102560003A000899079801F09FFB002800D0E1E6A7
:10257000BC6831AEFFF72FFA1D4A7B6892461022E5
:102580009046102D04DC1BE0103D0836102D17DDA1
:10259000524632604246103401337260BC607B6048
:1025A000072BF1DD3A000899079801F07DFB002820
:1025B00000D0BFE6103DBC687B6831AE102DE7DC73
:1025C00052466419013324C6BC607B60072B01DCD2
:1025D000FFF739FA3A000899079801F065FB0028DF
:1025E00000D0A7E6BC68FFF72EFAC0461499000099
:1025F000249900002898002800DC29E1149B119AF6
:102600009846934200DD90464346002B0BDD7360F5
:102610007B68444401333560BC607B60072B01DD7F
:1026200000F06DFF08364346DB434246DB1713409C
:10263000149AD31A9846002B00DDB7E3149B9A46F0
:102640005B46AA445B0501D500F05BFE289A119910
:102650008A4204DB5B46DB0701D400F03FFC1C9B95
:1026600033601B9B9C4673607B6864440133BC6091
:102670007B60072B01DD00F0E3FF0836119B9C46D1
:102680009A1A53466544ED1A954200DD1500002D57
:102690000CDD534633607B68641901337560BC60A0
:1026A0007B60072B01DD01F052F80836EB43DB17A6
:1026B0001D40551B002D01DCFFF7BBF97B68102D79
:1026C00001DC01F021FA1022C34990461291220048
:1026D0000C0005E00836103D102D01DCFFF739FA3B
:1026E00041461032013334607160BA607B60072B61
:1026F000F0DD3A000899079801F0D6FA002800D0DA
:1027000018E6BA687B6831AEE5E74346986D01F09C
:10271000EFFF43460C229B5E4246526E990401D461
:10272000FFF7C3F851130D4201D1FFF7C8F8154266
:1027300000D1FFE604E701235A46134200D023E606
:1027400073604346BC607B60072B00DC55E63A00B3
:102750000899079801F0A8FA002800D0EAE57B68FC
:10276000BC68984631AB994647E6302900D194E1E0
:102770003023013D0A9A023C2B705AAB1B1B0C9371
:1027800009929A4200DA09932500FFF761FB119B39
:10279000012B00DC31E6112B01DC01F0AAF98E4897
:1027A0002100102543464A460400129004E00832F6
:1027B000103E102E00DC23E310310133146055600D
:1027C000B9607B60072BF2DD3A000899079801F0A9
:1027D0006BFA002800D0ADE5B9687B6831AAE7E75D
:1027E0003A000899079801F05FFA002800D0A1E5A7
:1027F000BC6831AEFFF70CF95213154201D1FFF757
:102800005EF89DE65B46DB0701D4FFF712F9FFF7A0
:10281000A8FA80239843169A179B11008346194300
:1028200001D0FFF7F2FA0A9B002B00D1B8E0002399
:10283000002416931794FFF7F0FA069B10921B786A
:10284000FFF78AF8129A904600221292FFF7B3F827
:10285000624B01343360012373607B68BC600133D9
:102860007B60072B01DD00F02DFE0836002800D02C
:1028700054E25A4601231340119A134301D1FFF742
:10288000D8F81C9B33601B9B191973607B68B96077
:1028900001337B60072B01DD00F02DFC3200083294
:1028A0004EE2099300231A9315930F93FFF773F8E1
:1028B0001898199902000B0006F03CFD002801D081
:1028C00001F038F84B46612B01D100F059FE412B45
:1028D00000D137E30A9B013301D100F0CCFF802304
:1028E0005A465B001A4392464A46199B672A01D111
:1028F00000F0A1FF00220F924A46472A01D100F0C2
:102900009AFF80235A465B001A4392461899199AF7
:10291000002A01DA00F075FF189B199C2493259476
:10292000002312934B46413B252B01D900F000FCBC
:102930002B4A9B00D3589F46109B191D109B0022C9
:102940001B681091FFF7ADFA0A680B99109311609C
:10295000C9175160FFF774FB2000FFF797FA2000BA
:10296000FFF741FA9346FFF719F9109B191D109BC9
:1029700020AA1B68169300231793D3760A9B002B7B
:1029800001DA00F094FD80239843169B8346002BC8
:1029900001D0FFF7FFFB0A9B1091002B00D046E708
:1029A0000C931A931593149309930F935AADFEF752
:1029B000F2FF2200109908C9D20601D500F01EFFCF
:1029C0002200520600D454E21BB21693DB17179371
:1029D0001091FFF7EFF8C04614990000049600002C
:1029E0007C98000002205C46109102210443A3461B
:1029F000E44C8C467631A04689460D301840255C63
:102A00008424632120A8001945541B09110720A81C
:102A10000B4382461900E72512090F204446114353
:102A2000554400290BD019000140615C013D29701B
:102A30001B0911070B43190012091143F3D10A9A1C
:102A40005AAB5B1B0C9309929A4200DA099300235C
:102A500000210F931A93159314936346002B01D111
:102A6000FEF799FF84225B46584613401293099B58
:102A7000BC68023309937B68024206D10E9A09981A
:102A8000121A9046002A00DDD4E4002901D1FEF795
:102A9000A6FF02229046FEF78EFF0A9A5AAB5B1BF6
:102AA0000C9309929A4201DBFFF7D2F9FFF7CFF9B5
:102AB0003A000899079801F0F7F8002800D039E4A7
:102AC000BC6831AEFEF79DFF9946AF4BA3469846D2
:102AD0005B469B065CD50723109A07329A43110088
:102AE00013685268083101205D465C46054020426B
:102AF00059D01800104300D1E3E04C46302527A8F8
:102B000044700570002020ACE0760A98002800DAB6
:102B100098E05C469D4802250440200028438346F7
:102B200002205C460F25044040461D40A446455DFA
:102B3000109165E79946934BA3469846C8E73A003B
:102B40000899079801F0B0F8002801D0FFF7F2FBD0
:102B5000BC6831AEFFF714F99933FF33069A1C4372
:102B6000013213780692FEF7F7FE4C3BF6E7099325
:102B7000062B00D9AFE100230F93099B844D0C93E2
:102B8000002310940A931A9315931493FEF703FFEE
:102B90005A46109908C9D20652D45A4652064BD505
:102BA00000229BB29FE720A8C5760A9800284DDB3B
:102BB000764804401800A3461043B1D10A98002873
:102BC00000D19DE0434684251A78632320AC641924
:102BD000E2540990002800DC96E100230F930133B2
:102BE0000C9300231A931593149320ABE7259C466E
:102BF00010916544FEF7CFFE3A000899079801F05E
:102C000053F8002801D0FFF795FB7B68BC68984615
:102C100031AB9946FFF7C1FB3A000899079801F0DC
:102C200043F8002801D0FFF785FB7B68BC68984615
:102C300031AB9946FFF7C6FB5A46920500D571E1C4
:102C4000002250E75C4602200443A34602205C4673
:102C50000F2504404046A4465C461D40455D4D4856
:102C600010910440A346CBE64346986D01F042FD27
:102C700043460C229B5EFFF770FB00235AAD0C937A
:102C80001A93159314930F93FEF785FE3A00089953
:102C9000079801F009F8002801D0FFF74BFB20ABA3
:102CA000DB7EBC68002B77D0129A7B6890460022AE
:102CB00031AE1292FEF77FFE079801F08FF9FEF712
:102CC000E7FD20ABD8760A9B002B00DACAE35A4610
:102CD0002E4B1A40934671E73A000899079800F086
:102CE000E3FF002801D0FFF725FBBC6831AEFFF7FA
:102CF00032F8109A0B99126811601093FFF7A0F93F
:102D0000002310914CE60F201E4C1840255C022039
:102D100084467630A0468146109171E61C9B336054
:102D20001B9B191973607B68B96001337B60072BAB
:102D300000DDE0E132000832002801DA00F025FD74
:102D400011980133441815605060BC607B60072BFC
:102D500001DDFEF709FF08321600FEF76AFE2800C3
:102D6000FEF704F9C3430200DB171A4020ABDB7EF9
:102D70000C900992002B01D1FEF770FF01320992ED
:102D8000FEF76CFFD4950000E89500007FFBFFFF85
:102D9000FC950000FFFBFFFF129B002B00D1A9E078
:102DA00000227B68129231AEFEF719FE42467B6824
:102DB000102A01DC00F0CDFE1022D6499146129176
:102DC00022004446A8460D0004E00836103C102CB2
:102DD00000DC5BE349461032013335607160BA6054
:102DE0007B60072BF1DD3A000899079800F05CFF43
:102DF000002801D0FFF79EFABA687B6831AEE5E79C
:102E00000C00984691464B46129AA41944C30123DC
:102E10009C46E0444346BC607B60072B01DCFFF727
:102E2000E9FA94E4802358469B0018401D427CD167
:102E3000002316920A9A179320ABD876002A01DA5B
:102E4000FFF7A8F9802358469843169B8346002B2A
:102E500001D0FFF79FF91091002A00D0E7E49FE529
:102E60002200920559D500222000DBB21091FFF715
:102E700018F8220092054AD55BB21693DB17179318
:102E80001091FEF797FEA34A1292FEF737FF3A0021
:102E90004146079800F008FF002801D1FEF7F7FD32
:102EA000FFF750FA002220ABDB7E09920C925AAD5C
:102EB000FEF7C9FF984DFEF73DFE002314931A93C9
:102EC00015930C93099378339946002310915AADCA
:102ED00000210F93C6E5062309934CE68C46534622
:102EE00065448A1AED1A954201DCFFF7DFFB1500F5
:102EF000FFF7DCFB31AEFEF784FD109A0B991268E8
:102F000010931180FFF79CF8623B099365E61693D6
:102F1000DB1717931091FEF74DFE00222000109151
:102F2000FEF7BFFF0022DBB2DDE5D3B2169300232C
:102F3000179320ABDC760A9B002B01DBFFF721F90E
:102F4000FFF728F9754B20AA938302235A461A43A8
:102F50000A9B9346632B01DD00F062FC1899199AD5
:102F6000002A01DA00F092FC1898199928AA01F0B9
:102F70000FFCFF2300229B0505F0E4FC0022002348
:102F80000C900D91FDF748F9002801D001232893FA
:102F9000002312930F93624B41AD09930A9BA846FD
:102FA0009C46AC4463460A934B4614935B46A94641
:102FB0000C9C0D9D1196159307E000220023FDF750
:102FC0002BF9002801D000F031FD0022554B2000E4
:102FD000290005F0B7FC0D00040006F0C9F9060051
:102FE00006F0F8F9C24602000B002000290005F0A7
:102FF000CFFE012352469C46099B04009B5D0D00B9
:1030000013700A9BE0449A45D7D1159B4D469B46C9
:10301000149B00229946444B0A9644460C900D910D
:10302000119EFDF713F900280AD10C980D99002282
:103030003D4BFDF7F1F800281AD00A9BDB0717D5A6
:1030400053462C9343460999013B1A78C97B914218
:1030500007D1302018702C9B013B2C931A788A42A0
:10306000F8D0392A01D100F0ACFD0132D2B21A7089
:10307000289A631B1193531E9A4628934B4670213E
:10308000612B02D04123994620392AAB1970514651
:10309000002901DA00F0F1FC2B225A70092900DD29
:1030A0000DE320A92A228C4662445146303111702A
:1030B0000132D31A1F93119B1F991A008C46624448
:1030C0000C92012B00DCDCE31B9A0C9B94466344BE
:1030D0000C935A46154B1A401300802252001A4393
:1030E00093460C9AD343DB171A40002309921A9394
:1030F0001593149354E03A000899079800F0D4FD12
:10310000002801D0FFF716F92898B9687B6831AA22
:1031100012E6C04614990000C49500003058000023
:10312000E8950000000030400000E03FFFFBFFFF9B
:103130002CAB049329AB039328AB02930A9B07980B
:10314000019302230093249A259B01F0FDFB0500C7
:103150005B46DB0700D5F0E22C9B289A591B1191A6
:103160001492D31C00DA96E20A9B934200DA41E201
:10317000914200DD33E3149B0C935B465B0504D561
:10318000149B002B01DD00F0F9FB0C9AD346D343CE
:10319000DB171A4067239946099200231A93159367
:1031A00002205B4603409C46129B002B00D18AE024
:1031B0002D232D2120AAD376099B013309930023C7
:1031C0000A934AE44346986D01F094FAFFF79EF99A
:1031D000219A2099AD1A280001F0F4F91D993000C8
:1031E0004B788C465A1E93419C4463460A22390010
:1031F0001D930023FDF73EF80A22002306000F006E
:10320000FDF738F80123013D30322A701193FEF7A3
:103210007AFF0A9B0133119302232CAA119C04927A
:1032200029AA039228AA0292019400930798249A4B
:10323000259B01F089FB20234A469A4305009046CE
:103240000419462A00D167E1249825990022002319
:10325000FCF7E2FF002801D000F024FC45222C9B63
:103260009046A34201D300F0B2FC30215A1C2C92AC
:1032700019702C9BA342F9D35B1B11934346289AE8
:103280001492472B00D1AEE1462B00D15DE1149B97
:103290004A46013B9A4628932AAB1A705246002AA6
:1032A00000DA02E22B225A705246092A00DD06E2B9
:1032B000302220A98C469A70053A6244F5E60A9BB2
:1032C00011930323A9E720ABD97E002900D073E72F
:1032D00000230A93FFF7C1FB2D2320AAD3764B4688
:1032E000472B00DC43E200230F9303330C930023AE
:1032F0000A931A93159314930433D84D0993FEF748
:103300004AFB119B5A469C46AC4463460A93D44BF5
:10331000129298461023219A1A9993461D9A99461B
:103320003300564692462200444688461599149525
:10333000002931DD414600297EDD012149428C46CC
:10334000E04420995A441960594659607968BA6036
:1033500001317960072963DC083351460A980978FE
:10336000851B8D4200DD0D00002D0BDD79685219A3
:1033700001311E605D60BA607960072964DC5146E6
:1033800009780833E843C01705404D1B002D17DCB2
:10339000761815990029CDDC41460029CDDC12991B
:1033A000149D8B465146B2461E00119B1400EB182B
:1033B0001D919A4501D8FFF749F99A46FFF746F95A
:1033C0007968102D00DC24E30C9403E0103D0833F1
:1033D000102D17DD4846103201311C605860BA606C
:1033E00079600729F2DD3A000899079800F05CFC43
:1033F000002801D0FEF79EFF103DBA68796831AB16
:10340000102DE7DC0C985219013118605D60BA602C
:103410007960072964DC5146097808337618B8E7E3
:103420003A000899079800F03FFC002801D0FEF709
:1034300081FFBA6831AB90E7012149428C4615996A
:10344000E244614415917CE73A000899079800F03E
:103450002BFC002801D0FEF76DFF5346BA6819789F
:1034600031AB8FE75A467F4B84241A40434693463C
:103470001A78632320A80019C25400239C4620AB6D
:10348000E725984610914544FFF7D9FA4546A046EE
:103490001400129A44443260424601337260BC60A8
:1034A0007B60072B00DD19E20836FFF7C7F883467B
:1034B0001091FEF7AAFC099B092B01D9FEF713FE18
:1034C000FEF730FE3A000899079800F0EDFB00285F
:1034D00001D0FEF72FFF2898BC6831AEFFF7C6F980
:1034E0003A000899079800F0DFFB002801D0FEF7AA
:1034F00021FF53461978BA6831AB761849E73A008C
:103500000899079800F0D0FB002801D0FEF712FFC1
:10351000BC6831AEFFF787F82B78302B00D15EE224
:10352000289BE4180022249825990023FCF774FEB8
:10353000002851D12C9BA34200D296E65B1B11932D
:103540004346289A1492472B4DD05A46012314998A
:1035500013400A9A1343002900DCBAE2002B00D082
:1035600096E2149B0C93662399465B465B0500D557
:1035700006E20C9AD343DB171A40D34609920CE6B5
:10358000394B20AA938302235A461A430A9B934637
:10359000632B00DD44E11899199A002A00DA75E1DD
:1035A0001898199928AA01F0F3F8FF2300229B0527
:1035B00005F0C8F9002200230C900D91FCF72CFEB9
:1035C000002800D1A4E201232893002341AD1293E7
:1035D0000F93264B0993E1E4289B1493631B1193EB
:1035E0004346472BB1D1149B033354DB0A9B149AF7
:1035F000934215DA02235B429C46149BE144013B53
:103600009A464A4628932AAB1A705246002A00DB93
:1036100048E601221499521A92462D225A7047E622
:10362000119B149A934200DDD9E05B46149A0C92E8
:10363000DB0700D4A1E51B9B9C4662440C929CE5F1
:103640003A000899079800F02FFB002801D0FEF7F8
:1036500071FE289ABC6831AEFFF710F8C8950000DB
:1036600014990000FFFBFFFF30780000D4950000A4
:10367000002A00D13FE10A9B10945A1C09920C9336
:1036800000230A931A9315931493FEF784F9E249E1
:103690008A46FEF700FF02235B429C46E1444A460D
:1036A000149B013B28932AAB1A7001221499521AD9
:1036B00092462D225A705246092A00DCF8E520A9CC
:1036C00037228C466244099614005646AA460A934D
:1036D00030000A21FCF73EFDA0463031013C3000AD
:1036E00021700A21FCF7ECFC35000600632DEFDCAD
:1036F000010042463031023A20A884461170372139
:1037000061445546099E0A9B8A4200D32AE22A2038
:10371000604401009A46147820AB0C709C46372414
:103720000132644401319442F5D141465346221896
:103730000232521AD31A1F93BDE40A9BEC18472396
:103740009846EFE6002206900A92FEF708F93A0042
:103750000899079800F0A8FA002801D0FEF7EAFDC2
:10376000289A119BBC689A1A31AEFEF79FFF00237E
:103770000F9303330C9300230A931A931593149316
:103780000433A64D0993FEF706F94442103000DBDE
:103790002EE2A348A84610260500129004E0083245
:1037A000103C102C00DCABE010310133156056608A
:1037B000B9607B60072BF2DD3A000899079800F0AA
:1037C00073FA002801D0FEF7B5FDB9687B6831AA0D
:1037D000E6E72000FFF7B2F82000FFF7C8F81B9AD1
:1037E000119B944667229146149A63440C93002AD5
:1037F00000DDBAE69B1A5A1C0C92BBE62200FEF7CB
:103800002BFC1300802212069446634425932D233B
:1038100024911293FFF786F8814A1292FEF773FD06
:103820000A9B0798591CFDF721FD051E00D1E6E112
:103830000F90FFF766F80A9A002A00D1DDE0002B0E
:1038400000DA7AE1189B199C2493259400231293A3
:103850002CAB049329AB039328AB02930A9B0798E4
:10386000019302230093249A259B01F06DF8002315
:1038700005000F936CE400230F9306330A93FFF7C0
:1038800040F85B46DB0700D423E41DE413008022EC
:10389000120694466344259300230F932D332491FD
:1038A00041AD129328AA2498259900F071FFFF23B7
:1038B00000229B0505F046F8002200230C900D9194
:1038C000FCF7AAFC002801D001232893554B09934B
:1038D0004B46612B01D0FFF761FB7AE63A0008996D
:1038E000079800F0E1F9002801D0FEF723FDBC683D
:1038F00031AEFEF7A3FE0A9B10940C930993BFE62A
:10390000454612980919013310605460B9607B6014
:10391000072B01DCFEF7C3FF3A000899079800F077
:10392000C3F9002801D0FEF705FDB9687B6831AA0C
:10393000FFF706FA199B5946DB0FDA07149280222B
:1039400091438B46002B00D1B0E02D2320AAD376E3
:103950004B46472B00DC17E100230F9303330C93F6
:1039600000230A931A931593149304332E4D09934D
:10397000FEF711F8089B9846FEF7E4FC672399468A
:103980001D990B78FF2B00D135E100221A92159278
:10399000149A05E01598013101301590FF2B0AD0DB
:1039A000934208DAD21A4B78002BF3D11A9B0133D9
:1039B0001A930B78F2E71D911492159A1A9B94466C
:1039C000219A634453430C9AD34694469C446246DE
:1039D000D343DB170C921A400992FFF7E1FB002258
:1039E000249825990023FCF717FC002800D17BE0E0
:1039F000289B9C4614936444F0E5002B00DAB5E064
:103A0000189B199C249325940023129301330A9345
:103A10001EE703480C90F5E424990000C4950000CB
:103A200014990000E8950000D0950000159B4D46C4
:103A30009B46149B0A9999465346DB4344463022E1
:103A4000119E481CCB4201D5FFF712FB43460A9C4E
:103A500019001A700133A142F9D10400FFF708FBE5
:103A600000230F9303330C9300230A931A931593A7
:103A7000149304330993FDF78EFF01218A1A9246AD
:103A80002D225A705246092A00DD18E6FFF709FB7D
:103A900013008C461B9A6344944663440C9366233C
:103AA000994662E5289B1493FFF7F1FB4A4620AB49
:103AB000DB7E472A00DC88E0554D002B00D08CE0EF
:103AC0000A931A9315930F9303330C930993FDF7FD
:103AD00062FF002B21D10123099365339946653B91
:103AE000D3460C93FFF759FB0123119A9B1A289395
:103AF00017E5484B1293FFF786F95B6EDB0701D59C
:103B0000FEF71EFDFEF716FD424A1292FEF722F85E
:103B1000002341AD12930F935BE50A9A1B9B9446D9
:103B200001339C446246D343DB170C921A40662350
:103B3000D34699460992FFF730FB1899199A13005A
:103B4000802212069446634425932D2324911293D8
:103B50007EE6304A12929CE44346986D00F0CAFD1E
:103B6000FEF7EEFC02231F93FFF7A5FA1899199AA6
:103B70001300802212069446634425932D2312934A
:103B80002C3B24910A9363E600230F9303330C9399
:103B900000230A931A931593149304331E4D09932B
:103BA000FDF7F9FE109A08CA0A93002B02DA0123E6
:103BB0005B420A9310926246069B06925B78FDF781
:103BC000CBFE099A927AFFF752FA134D75E7289ABD
:103BD0005B1B14921193FFF75AFB00230A931A936D
:103BE00015930F9303330C9301330993FDF7D3FE21
:103BF0000848129085E600231A931593DDE6089B8A
:103C00009A8998464023134342469381FEF79AFBD4
:103C1000D095000014990000CC950000F0B5C64680
:103C200000B5204C1600A54402226C4698468B89AC
:103C300007009343A3814B6E16A81993CB890D00FF
:103C4000E381CB6907934B6A09931AAB0093049302
:103C50008023DB00029305930023069300F044FDCC
:103C60003200434669463800FDF7F6FD061E10DABD
:103C7000A3895B0603D54022AB891343AB81A06DBA
:103C800000F034FD30008D23DB009D4480BCB8463D
:103C9000F0BD6946380000F0B5F80028E8D00126EC
:103CA0007642E5E798FBFFFF10B514009268002309
:103CB000002A05D0220000F0BDF900220300A26016
:103CC00000221800626010BDF0B5C64600B50C2297
:103CD0008B5E07000C001A074DD480216268090131
:103CE0001943A181002A69DDA56A002D3FD0002279
:103CF0003E683A60DB0466D4002201233800E169A3
:103D0000A8470200431C6BD00C23E15EA56A49075B
:103D100006D56368D21A236B002B01D0E36BD21A4D
:103D200000233800E169A8470C23E25E431C4CD114
:103D300039681D295ED8314BCB40DB075AD5304B53
:103D40001340A3810023636023692360D20401D55B
:103D5000002943D0216B3E60002908D02300403366
:103D6000994202D03800FDF789F90023236300202F
:103D700080BCB846F0BD0E69002EF8D00D68002258
:103D8000AD1B0E609B0700D14A69A260002D04DCC8
:103D9000EDE736182D1A002DE9DD636A32009846EA
:103DA00038002B00E169C0470028F2DC4022A389DB
:103DB00013431BB20120A3814042D9E7E26B002AE2
:103DC00000DD91E7D3E7226DA1E70D4B1340A381FE
:103DD0000023636023692360D204BBD52065B9E763
:103DE0003B68002B00D18FE71D2B01D0162BDDD1B6
:103DF0003E60BCE740231343DCE7C046010040209F
:103E0000FFF7FFFF70B505000C00002802D0436BE0
:103E1000002B27D00C22A35E002B11D0626ED2079C
:103E200001D49B050ED528002100FFF74DFF636EDE
:103E30000500DB0702D4A3899B050FD5280070BDC0
:103E40000025FBE7A06D00F053FC28002100FFF7E0
:103E50003BFF636E0500DB07F0D4ECE7A06D00F0DC
:103E600049FCEBE700F0BAF8D4E7C04610B5034AC6
:103E70000349044800F052FA10BDC046580500201E
:103E80002D6600000800002041680B4B10B50400AF
:103E9000994201D002F0CAFBA168084B994202D0B6
:103EA000200002F0C3FBE168054B994202D02000DC
:103EB00002F0BCFB10BDC0462C3800209438002016
:103EC000FC380020F8B5CE4647463B4C3B4B3C4ABD
:103ED0002000002580B51A600423082200215C30F0
:103EE00025606560A560656625616561A561E36023
:103EF000FCF768FF2000334B334F344E9946236262
:103F0000334B58309846A762E6626362E46100F082
:103F1000EBFBCC23E5502F4B20006367802300216F
:103F20000822C430E550A566E5662567A567E56704
:103F3000FCF748FF220084236832E2504A460433EB
:103F4000E250424620000433E2500433E750C030D0
:103F50000433E65000F0C8FBD0232000E5500433C2
:103F6000E5500433E5501C4A5C33E550583BE250C1
:103F70000433E5502D300433E5500021043308228A
:103F8000FF30E550FCF71EFF2200EC23D032E25058
:103F90004A460433E250200042460433E2502930BE
:103FA0000433E750FF300433E65000F09DFBC0BC03
:103FB000B946B046F8BDC0462C3800206439002010
:103FC0006D3E000061430000C9430000F54300005E
:103FD00089430000090001001200020070B50400CE
:103FE000094D280000F084FB636B002B05D1074BC3
:103FF0006363074B1B68002B03D0280000F07AFB9B
:1040000070BDFFF75FFFF8E76C390020893E0000C4
:104010006439002010B5024800F06AFB10BDC046AC
:104020006C39002010B5024800F064FB10BDC0469A
:104030006C390020F0B54546DE4657464E46E0B5A1
:10404000936883B00C0090460090002B27D00C2280
:104050008B5E1A072BD50A69002A28D042461668BB
:104060009A0730D5AA4B002700259946002D00D18C
:104070008CE02B004D4500D9A54B626AE169924660
:1040800000983A00D047002800DC89E043464246C9
:104090009B683F181B1A2D1A9360002BE6D1002055
:1040A00003B0F0BCBB46B246A946A046F0BD210015
:1040B000009800F0A5F9002877D10C22A35E4246B3
:1040C00016689A07CED4DA0772D40022914680226D
:1040D000920000279346002F53D05A462068A568C7
:1040E000134200D1A8E0AA46BD4200D9D6E09022F2
:1040F000D20013422DD02169451A60690195420012
:104100001218D00F8218681C5210C01992469042A3
:1041100001D9824602005B0500D4DDE01100009861
:10412000FDF7A4F8051E00D1EBE0019A2169FCF728
:10413000C7FEA389774A134080221343A3815246C6
:10414000019B2561E818BA463D00D31A20606261E0
:10415000A3605246494600F0D3F9A3685B1B3D00BB
:104160000027A360236853442360434642469B686C
:10417000A9445B1B936000D191E70C22A35E002F42
:10418000ABD13268776891460836A4E7376875681E
:1041900008366BE721000098FFF734FE00282BD08B
:1041A0000C22A35E40221343A3810120404277E703
:1041B00000230027B14600209A461E00002F27D07A
:1041C00000282ED03300BB469F4200D99B46206872
:1041D00022696369904203D9A5685D19AB456DDC1E
:1041E0005B455EDC656A5246E1690098A847051E9A
:1041F000D6DD0120761BCDD0434642469B68AA44BB
:104200005B1B7F1B9360002B00D148E7002FD7D1A9
:1042100008224B4694465F68E144002FF8D01B68A3
:104220009A463A000A21504600F074FA002865D0F8
:1042300053460130C61AC5E72369834217D3636921
:104240009A46BB4213D8802338001B069F4200D3F6
:1042500031485146FBF734FF5346656A43434A46AB
:10426000E1690098A847051E9ADD7F1B7DE7BD42E6
:1042700000D93D002A00494600F042F9A3682268AF
:104280005B1B5219A3602260002BEED12100009825
:10429000FFF7B8FD002883D17F1B66E73D00BA46D3
:1042A00057E75A46514600F02BF95A46A3685D4637
:1042B0009B1AA36023685B4423609AE751462A0057
:1042C00000F01EF9236821005B1900982360FFF7B6
:1042D00099FD00288DD063E7009801F0FFFF051ECF
:1042E00000D02CE7009D21692800FCF7C7FE802242
:1042F000A3899343743A1BB22A6053E77B1C1E00C8
:1043000061E70C23009A13600C22A35E4AE7C046C3
:1043100000FCFF7F7FFBFFFFFFFFFF7FF8B54746F5
:10432000CE46884680B58146170000267D68BC6869
:10433000013D0DD4A389012B07D90E22A35E0133C1
:1043400003D021004846C04706436834013DF1D2FE
:104350003F68002FEAD13000C0BCB946B046F8BD76
:1043600070B50C000E25495F00F084F9002803DBCE
:10437000236D1B18236570BDA389024A1340A381D6
:10438000F9E7C046FFEFFFFFF8B50C001F000C2354
:10439000C95E05001600CB050AD40A4B320019404D
:1043A0002800A1810E23E15E3B0000F089F9F8BDF1
:1043B0000E23E15E0022022300F048F90C23E15EA7
:1043C000EBE7C046FFEFFFFF70B50C000E25495F1D
:1043D00000F03CF90C22A35E421C05D08022520161
:1043E00013432065A38170BD014A1340FAE7C0461C
:1043F000FFEFFFFF10B50E23C95E00F015F910BDE9
:104400003E4B70B5050018680C00002802D0426BC6
:10441000002A5CD00C22A35E1A070ED52269002A5E
:1044200015D00122110019401A4223D00023A360A5
:1044300063695B42A361002070BDDA0656D55A0756
:104440001DD4226908210B43A381002AE9D1A021B0
:104450008020890080001940814227D1D90739D5B1
:10446000A26062695242A2611A06E4D54022134357
:10447000A38140E09B0717D46369A360DBE7216B4E
:1044800000290AD022004032914204D02800FCF7D3
:10449000F5FD0C22A35E0022226324229343002216
:1044A000626022692260CDE7A160C4E72100280094
:1044B00002F022F90C22A35E2269D9070FD5002150
:1044C000A16061694942A161002ACDD0B3E7FFF73D
:1044D00085FD9FE7990707D46169A160F4E7002192
:1044E0009807FAD46169F8E7A260BDE709222A605B
:1044F00040221343A381012040429DE70000002099
:10450000F0B5CE46474680B588420DD98B18984203
:104510000AD2531E002A03D0CA5CC254013BFBD20C
:10452000C0BCB946B046F0BD0F2A0BD80500561ED8
:10453000002AF5D00023CC5C1A00EC5401339642DB
:10454000F9D1EDE703000B4388469B0734D11026D1
:104550001700B1460C000300103F3F093F01C51989
:10456000A94426681E6066685E60A6689E60E6686C
:104570001034DE601E001033AE42F2D1CF19390084
:104580000F230C2610318C461340164217D0444698
:10459000043B9B089B00FF181437061B0C688D1901
:1045A00004312C60B942F9D16146043359184B44A7
:1045B0001D0003231A40BAE70500561EBAE74D4610
:1045C0001A00B4E70B00034370B506009B070DD13A
:1045D000032A0BD9104D0C68104BE318A3432B4250
:1045E00004D1043A043110C6032AF4D8330000245D
:1045F00006E00D5D013A355501330134002D02D03E
:10460000002AF6D170BD00219C18002AFAD019703A
:1046100001339C42FBD1F5E780808080FFFEFEFEE7
:104620000048704754060020002370B5064C050072
:1046300008002360FCF7F0FA431C00D070BD23682B
:10464000002BFBD02B60F9E7F437002070B5040095
:10465000080011001A000023054D2B60FCF7E4FA56
:10466000431C00D070BD2B68002BFBD02360F9E702
:10467000F437002070B50400080011001A00002370
:10468000054D2B60FCF7D2FA431C00D070BD2B689F
:10469000002BFBD02360F9E7F4370020002370B52E
:1046A000064C050008002360FCF7A4FA431C00D068
:1046B00070BD2368002BFBD02B60F9E7F437002096
:1046C00070B50400080011001A000023054D2B608E
:1046D000FCF782FA431C00D070BD2B68002BFBD086
:1046E0002360F9E7F43700207047C0467047C046A2
:1046F0007047C0467047C046802310B55B0108284C
:1047000001D1180010BD02F087F816230360173B93
:10471000F7E7C0460300F0B50700CCB2980730D0E9
:1047200003269D1806E01878A04207D0581C304296
:1047300006D00300AB42F6D10020F0BD1800FCE724
:10474000013AD219D21A032A11D9FF230B401902B8
:10475000C9180B040C4EC91803680C4D4B405D1969
:104760009D43354205D1043A0430032AF4D8002A87
:10477000E2D082180378A342DFD001309042F9D111
:10478000DAE71800DFE7C04680808080FFFEFEFE8B
:1047900070B5140000222260114A4B000D005B0826
:1047A000934211D81A0002430ED00E4A0A420CD08E
:1047B00000220D4E1B15B44663449B1823600B4B1F
:1047C0000B4A2B401A43110070BD0022094B04F024
:1047D000B9F836224B000D005B085242E9E7C046AB
:1047E000FFFFEF7F0000F07F02FCFFFFFFFF0F8065
:1047F0000000E03F00005043F0B54546DE46574616
:104800004E46E0B503690D6985B080460A00029105
:10481000AB4200DA96E00700013D1432AB001437DA
:10482000D618FB1803931B6801929A4633685046CA
:10483000013319009946FBF799FC0400CA4541D39E
:104840000023AC4618002500BA461C00B3463900C8
:10485000019A0092009A08CA1F043F0C6F431B0C78
:104860006B433F193E0C9E190B6800923F041A04DB
:10487000120C3F0CD71B3F183004000C1B0C1B1AEA
:1048800038141B183F0418143F0C1B043B4308C189
:10489000009B340C9B45DDD2039A2C0013685E46C6
:1048A00057466546002B0DD11300043B9F4204D3AD
:1048B00006E0043B013D9F4202D21A68002AF8D06C
:1048C00043461D614046029901F0B4FB002826DBF7
:1048D00000239C4623003A006446B946AA469C46FB
:1048E000019920C913682F041804000C3F0CC01B49
:1048F00000191B0C2C0C1B1B04141B1900041C148A
:10490000000C1B04034308C28E42EAD255464F46B0
:10491000AB00FB181A686446002A0CD00134200052
:1049200005B0F0BCBB46B246A946A046F0BD1A6829
:10493000002A03D1013D043B9F42F8D34346013492
:104940001D61ECE70020EBE7F0B54E464546DE463C
:1049500057461400E0B51D00816B9DB0814604945C
:104960000595002909D00123C26B93404A608B60F2
:1049700001F09AF800234A4693632E000023002D8D
:1049800003DA6E00760805960133299A1360320027
:10499000AD4B1A409A4200D1B2E0049A059B100038
:1049A00019000022002306900791FBF735FC002830
:1049B00012D00123289A13602A9B002B02D0A34B0C
:1049C0002A9A1360A24B039303981DB0F0BCBB4618
:1049D000B246A946A046F0BD1AAB01931BAB0093AB
:1049E0004846069A079B01F017FC1A9F8246320D33
:1049F00000D097E01B9B9846964BB8444344202B2D
:104A000000DCF1E24022D31A9E40934B3000434435
:104A1000DC40204304F006FD0122464690468F4BC1
:104A2000013ECB18190000228D4B04F0B1F98D4ADC
:104A30008D4B03F087FF8D4A8D4B03F02BF904005B
:104A400030000D0004F0C6FC8A4A8B4B03F07AFF5D
:104A500002000B002000290003F01CF904000D00E7
:104A600004F086FC002283460890002320002900E1
:104A7000FBF7D8FB00280BD0584604F0ABFC2B000A
:104A80002200FBF7C9FB434258415B461B1A0893BF
:104A9000BF1B089C7B1E9B46162C00D90AE2069879
:104AA0000799764AE300944663441A685B68FBF70B
:104AB000B9FB002800D019E2002F01DC00F0A6FDB0
:104AC0000023A4460C94E3440D93099300230B9315
:104AD000269B092B00D98BE1052B36DD043B0024F6
:104AE0002693042B01D100F06EFD052B36D0022B4E
:104AF00001D100F088FD03232693002312932FE0B9
:104B00005F4B289A3603360B1360264316D12A9B37
:104B1000002B01D100F08BFF5A4B039308332A9AE4
:104B2000136051E7069C079D574B2903090B0B4364
:104B30005649200056180022904673E72A9B002B06
:104B400000D056E2524B03933EE7269B042B01D143
:104B500000F038FD052B00D0CDE201240123129393
:104B6000089A279B94466344109301331D1E0A93B1
:104B700001DC00F051FF01220423172D01DC00F0BD
:104B80004BFF5B001800143011000132A842F8D925
:104B90004B46D963484600F05FFF0390002801D1DF
:104BA00000F0D2FE4A460A9B90630E2B02D8002CDE
:104BB00000D0A1E1279B98461B9B002B6CDB089B38
:104BC0000E2B69DC2D4B1493149A089B9446DB0042
:104BD00063445C681B6804930594279B002B01DBEE
:104BE00000F0A6FD0A9B002B01DD00F0A1FD0A9B51
:104BF000002B00D0EFE1049805990022254B03F02B
:104C0000A1FE02000B0006980799FBF715FB002890
:104C100000D0E0E13123039A002113704846561C6E
:104C200000F042FF089B023308935146484600F0CB
:104C30003BFF0023089A3370289B1A602A9B002BA5
:104C400000D1C1E61E60BFE60000F07F05960000BF
:104C5000049600003204000012040000000010FE60
:104C60000000F83F61436F63A787D23FB3C8608BF2
:104C7000288AC63FFB799F501344D33F68990000B0
:104C80000F270000089600000000F03F01FCFFFF26
:104C90001496000000001440129B002B01D000F07D
:104CA0008AFE099B002B00D0A7E10B9B002B00D1B3
:104CB00036E251460B9A484601F0D2F8012182466D
:104CC000484600F0C5FF0C9B0690002B01D000F079
:104CD00025FE0024099E0B9301331F2211005B4423
:104CE00019401A4200D158E220235B1A042B00DC41
:104CF0007BE31C235B1A099AF61894469C4462468F
:104D00009B440992099B002B05DD51461A00484639
:104D100001F012F982465B46002B05DD5A464846F3
:104D2000069901F009F906900D9B002B00D03AE39B
:104D30000A9B002B00DC12E30B9B002B00D053E2FC
:104D4000089B013308930125039B2F005E1E069BE1
:104D500055469846A2460A9C07E0290000230A22ED
:104D6000484600F0ABFE0500013741462800FFF73A
:104D700043FD3030F055A742EFDB0A9B5446070055
:104D8000AA460025002B01DD1D00013D039B0133D8
:104D9000ED1800239B4651460122484601F0CCF80D
:104DA0000699824601F046F9002800DCADE1039A3D
:104DB00002E0954200D1E5E32E00013D2B78392B2E
:104DC000F7D001332B704846069900F06DFE002C99
:104DD00000D12AE75B46002B05D0A34503D05946F6
:104DE000484600F061FE2100484600F05DFE1CE7E9
:104DF0000023269300234A4600214846D36300F04F
:104E00002BFE0390002801D100F09EFD4B46039A33
:104E10009A631B9B002B03DB089A0E2A00DC0BE134
:104E20004246002A00D0AAE136231A9A0B9D9B1A0B
:104E3000012252420A921092099E01214846F71817
:104E40009B4400F005FF0400002E00D0AFE30B9B55
:104E5000002B00D1B4E30026002D01D000F09CFC13
:104E6000514648460B9A00F0FBFF82460997012104
:104E7000484600F0EDFE0C9B0690002B01D000F0A0
:104E800054FC269B012B00DDACE2049B002B00D0E0
:104E9000A8E2059B1B0300D0A4E2C14B059A134274
:104EA00000D19FE27B1C099301239C460B93E344B2
:104EB0000C9312E701230D93002309935B46002B0B
:104EC00004DA0123DB1B099300239B46089B002B7C
:104ED00008DA099A089BD21A5B420B9300230992C5
:104EE0000C93F5E59C460C93E344EFE5089B013BEE
:104EF000089300230D93DFE70899002900DC8FE376
:104F00000F220B00A74813408446DB0063440E11B8
:104F10001C685D68CB0500D524E1069A079B0E92BC
:104F20000F9302239846002E10D09F4F0123334247
:104F300000D12FE19C460CCF20002900E04403F073
:104F400001FD761004000D00002EEFD10E980F9990
:104F500022002B0003F066F90E900F910D9B002BA1
:104F60000AD00E9C0F9D0022200029008F4BFBF7DA
:104F700059F9002800D03EE2404604F02BFA0E9A80
:104F80000F9B03F0DFFC8A4B002202F083FE894B6B
:104F90000600CF18089B15930A9B1193002B00D095
:104FA00050E20E980F990022834B03F0F1FE32007D
:104FB0003B0004000D00FBF749F9002800D029E66A
:104FC000802109067B18320020002900FBF72AF90E
:104FD000002800D1EEE50021484600F065FD279B42
:104FE000039E5B42089320E620222000D31A9840BB
:104FF00010E5724B0393033391E55B46002B0AD017
:10500000099A13005A4500DD5B46099AD21A0992A3
:105010005A46D31A9B460B9B002B00D049E6012130
:10502000484600F015FE0C9B0024099E0690002BBC
:1050300000D080E0013350E65A4BD2009B181D6827
:105040005E68069807992A0033000495059603F0D8
:10505000E9F804F08DF9040004F0BCF92A003300EB
:1050600003F070FC0B0002000698079903F090FE15
:10507000039B30345F1C1C7001235B420A930123A5
:105080009846039B013B9B463B004746984620E0E1
:10509000049A059B2000290003F0C4F804F068F985
:1050A000060004F097F9049A059B03F04BFC0200FC
:1050B0000B002000290003F06BFE01239C46330007
:1050C0005A4630330137D3550A9BE0449F4200D102
:1050D0000BE300223A4B03F035FC002200230400CE
:1050E0000D00FBF799F80028D2D04746089B3E00F8
:1050F0000133089399E5022B00D183E2032B00D002
:1051000078E60023012412932AE5002802D1FF0744
:1051100000D54CE62E00013D2B78302BFAD052E61C
:105120000121484600F094FD0C9B002600240690C7
:10513000002B00D17EE748460C9A069900F090FEBD
:1051400000230C93269B0690012B00DCA2E2069A1A
:10515000944613699B006344186900F001FD202305
:105160001B1ABAE5104B1640069807991A6A5B6A33
:1051700003F058F803230E900F919846D3E6114A96
:10518000002194460122524288460B9D63440A92B4
:10519000109251E676100837C8E61C23ABE5C046EE
:1051A0000000F07F68990000409900000000F03F87
:1051B00000001C400000C0FC0000144014960000D9
:1051C0000000244033040000002321000A22484646
:1051D00000F074FC109B040008950A93002B03DC7C
:1051E000269B022B00DDBEE0002E05DD21003200F3
:1051F000484600F0A1FE04000C9BA046002B00D006
:105200005DE20A9A039B94469B46013B9C4463469D
:105210000A9301235F465646C346049A1A400C92ED
:10522000069D30002900FFF7E7FA3022030094467C
:10523000210063440B9030009A4600F0FBFE2900E9
:1052400080465A46484600F013FFC3680500002B0D
:1052500034D10100300000F0EDFE290009904846ED
:1052600000F022FC099B269A134359D10C9B002B7A
:1052700000D159E34346002B00DA60E353463B700C
:105280000A9B7D1CBB4200D11BE3310000230A2294
:10529000484600F013FC002306000A22210048467D
:1052A0005C4537D000F00AFC5946040000230A226E
:1052B000484600F003FC2F008346B1E74546010055
:1052C0004846D846BB465746B24600F0EDFB002D97
:1052D00006DB0123049A1340269A15432B4330D151
:1052E00051460122484600F027FE0699824600F00A
:1052F000A1FE002800DC3EE3392F00D1F8E20B9F2D
:1053000031375B465E1C1F70089BA3460133444641
:10531000089358E500F0D2FB2F00040083467FE796
:105320004346002B00DAF0E2269A13430C9A13430B
:1053300000D1EAE2099B002BA0DDD846BB465746C8
:10534000B246392F00D1D3E25B465E1C089B013781
:10535000013308935B46A3461F70444633E5269B02
:10536000022B00DCE8E40A9B002B00D084E10699C4
:105370000522484600F0A2FB01000690504600F0CE
:1053800059FE002800DC77E13123039A4846137068
:105390000699561C00F088FB089B02330893002CEA
:1053A00000D020E541E45046069900F043FE002875
:1053B00000DBBDE4089B51460A2248465D1E0023DF
:1053C00000F07CFB0B9B8246002B00D0FCE6109B80
:1053D0000A93002B00DDB6E4269B022B00DCB2E42E
:1053E0000895C0E701230B9377E4042B00D189E4EF
:1053F0003C235B1A7FE40A9B002B00D1ABE2109B9D
:10540000002B01DCFFF7D6FB089ADB4B013A2000AA
:1054100029001592002203F095FA040040460D0081
:1054200001300E940F9503F0D5FF22002B0003F0FE
:1054300089FA0022D14B02F02DFC0600D04A109BC5
:105440008F181193CF49119B8C46013BDB006344BD
:105450005C681B681491169317940E9C0F9D29008D
:1054600020001896199703F083FF03003033DEB253
:1054700003F0B0FF02000B002000290003F088FCBD
:105480000D000399040012984F1C0E97002800D1BC
:105490009DE1169A179B0020BB4902F0C3FE189AA3
:1054A000199B03F075FC039B22001E702B001290C9
:1054B0001391FAF7CBFE002800D066E2002398464D
:1054C0005B4616935346BB46129E139F0E9334E0E1
:1054D00001239C46119BE044984500DB5FE20022DB
:1054E00030003900A44B03F02DFA0022A24B060035
:1054F0000F002000290003F025FA0D00040003F03E
:1055000037FF824603F066FF02000B0020002900EF
:1055100003F03EFC01239C4653460D000400414627
:10552000039A30335354200032003B002900E344F7
:10553000FAF778FE002800D024E222002B00002099
:10554000924903F025FC32003B00FAF76BFE00287D
:10555000BED00E9B5F469A4601229446159B039A45
:105560006344984602E0974200D1BCE13E00013F0F
:105570003B78392BF7D00133DBB23B7043460893BD
:10558000FFF753FB3123039A1370089B01330893F1
:1055900019E45D1B0A9B002B00DB4DE4099F0A9B6D
:1055A00001214846FE1A00F053FB040009965B46B1
:1055B000002B00DD72E10B9B099E002B00D04BE419
:1055C000099754E4012401231293279B002B05DD46
:1055D000279B1D0010930A93FFF7CDFA00234A463C
:1055E00000214846D36300F037FA0390002800D129
:1055F000AAE14B46039A9A63012310930A932793D7
:10560000FFF7D5FA012400231293DEE70123DB1B09
:105610000993089B9B460C9300230D93FFF756FAC2
:10562000089B002B00D156E1069807995C42554A29
:105630000F2394462340DB0063441A685B6803F041
:1056400081F924110E900F91002C00D1E0E102238A
:1056500001261F004E4D26420BD00E980F990CCDFF
:1056600003F070F901370E900F916410F3D1B84632
:1056700074E464100835EEE74846069900F014FA21
:1056800043465B42039E0893002C01D0FFF7ABFB1F
:10569000FFF7CBFA049B002B00D058E5059B1B03BA
:1056A00000D054E53B4B059A134200D14FE5099BCE
:1056B0000133099301239C460C93E34447E5484694
:1056C000616800F0C9F9051E00D1AAE12100226934
:1056D0000C31023292000C30FBF7F2FB0122290060
:1056E000484600F029FC80468BE5474602000B0047
:1056F00002F0D0FA089B0400013398460893049AFC
:10570000059B0D00FAF7A2FD002809D1049A059B1C
:1057100020002900FAF780FD002803D0F60701D504
:10572000039A23E73E00FFF780FA01230B9302E57B
:10573000039B01330E93049A059B069C079D200052
:10574000290002F06FFD03F013FE060003F042FE95
:10575000049A059B03F0F6F802000B0020002900D4
:1057600003F016FB3300039A303313700A9B0E9F2D
:10577000012B00D083E4B9E70000244000001C4066
:105780000000C0FC689900000000E03F0000F03F0E
:10579000409900000000F07F21002A00484600F0F8
:1057A0005FFB524601000400484600F081FA514672
:1057B0000690484600F078F90B9B069A5B1B9246D0
:1057C0000B93099701D1FFF752FBFFF749FB189A9A
:1057D000199B1698179903F0B5F8039A119B9446F4
:1057E00016701E00129013916644012B21D03300D5
:1057F0003E0098460022904B2000290003F0A2F8BA
:105800000D00040003F0B4FD070003F0E3FD020007
:105810000B002000290003F0BBFA30373770013647
:1058200004000D004645E5D10E9B5F1E119B9C4672
:105830006744002212981399804B02F02BFA220041
:105840002B00FAF7EFFC002800D085E6129A139B94
:1058500000207A4903F09CFA22002B00FAF7F6FCAC
:10586000002811D11B9B002B00DA94E0089B0E2B23
:1058700000DD90E0149A089B9446DB0063445C686A
:105880001B680493059456E73E00013F3B78302B9C
:10589000FAD0159B01330893FFF7C7F9099A130053
:1058A0005A4500DD5B46099AFF1AD61A5A46D31AA2
:1058B0009B460B9B002B01D0FFF7CEFA0997FFF711
:1058C000D6FAD846089B57460133A346B24644460B
:1058D0000893FFF760FA069B079C0E930F94022330
:1058E0009846FFF73BFB012294463123E04444E60F
:1058F0005B465A465D1C39231370089BA34601334F
:105900004446039A0893FFF757FA0998D846BB46CE
:105910005746B246002800DDE2E4F2E4002300240A
:10592000099E0B93FFF707FC4546D846BB465746F2
:10593000B246392FDCD0002D00DDE0E4E1E4D846AA
:10594000BB465746B246DCE4B02100223C4B3D4802
:10595000FF3100F067FF404603F03CFD0E9A0F9BBD
:1059600002F0F0FF384B002202F094F9374B0600AA
:10597000CF18FFF716FB002800D0C2E4FB0700D5C4
:10598000BAE4BEE40E9B5F469A46159B3E00013387
:105990000893FFF74AF9279B9846FFF782F9169B71
:1059A0009B460E9B9A461B9B002B04DB089B0E2BF1
:1059B00001DCFFF709F9279B98460A9B5D1E0B9BAC
:1059C000AB4200DBE5E50C9A0B9B9446EB1A9C443A
:1059D0006346099E0C930A9B37009C46012148466A
:1059E0006744E34400F034F90400002E02D10B9523
:1059F000FFF736FA099A13005A4500DD5B46099A0B
:105A0000FF1AD61A5A46D31A9B460B95FFF728FA67
:105A100002239846FFF7A2FA00214B46D963FFF70D
:105A2000B9F80022064B0748094900F0FBFE094B74
:105A30000393FEF7C9FFC046000024400000E03F8A
:105A4000189600002C96000000001C400000C0FCCE
:105A5000EF02000008960000436C70B504000D00D2
:105A6000002B0AD0AA009B18186800280ED00268E4
:105A70001A6000230361C36070BD2122042100F07D
:105A8000F1FE031E6064EDD10020F5E70126AE4073
:105A9000721D01212000920000F0E4FE0028F3D0E6
:105AA00045608660E5E7C046002906D04A68436C39
:105AB00092009B181A680A6019607047F0B5C646D4
:105AC0001F008046002300B50E000D6914310C68DC
:105AD00001332004000C5043240C5443C019070C1C
